:10000000E022002055270000D18D0000412700008C
:100010004127000041270000412700004127000040
:10002000000000000000000000000000BD280000EB
:100030004127000000000000512800004127000077
:10004000492A0000492A0000492A0000492A0000E4
:10005000492A0000492A0000492A0000492A0000D4
:10006000492A0000492A0000492A0000492A0000C4
:10007000492A0000492A0000492A0000492A0000B4
:10047C0053B94AB9002908BF00281CBF4FF0FF31FF
:10048C004FF0FF3000F00CB8ADF1080C6DE904CE64
:10049C0000F010F8DDF804E0DDE9022304B0704749
:1004AC00704700BF034613F8012B002AFBD1181A22
:1004BC00013870472DE9F04786468C460846089E61
:1004CC00154674461946002B40F0C1808542B2FA9D
:1004DC0082F245D94AB1C2F1200300FA02FC9540E0
:1004EC0094402EFA03F343EA0C0C4FEA154EA8B2D3
:1004FC00230CBCFBFEF80EFB18CC08FB00F943EAFE
:10050C000C43994528D9EB1808F1FF3704D29945CB
:10051C0002D9A8F102072B44A3EB0903A4B2B3FB45
:10052C00FEFC0EFB1C330CFB00F044EA0344A0421F
:10053C0014D92C190CF1FF3304D2A04202D9ACF11E
:10054C0002032C44241A43EA07401EB1D440002372
:10055C0034607360BDE8F0874746DDE76346F1E73A
:10056C0092BB431B01214FEA154EAFB2200CB3FBDB
:10057C00FEFC0EFB1C330CFB07F840EA03439845CA
:10058C0061D9EB180CF1FF3004D2984502D9ACF1CB
:10059C0002002B44A3EB0803A4B2B3FBFEFC0EFB3E
:1005AC001C330CFB07F744EA0344A7424DD92C1922
:1005BC000CF1FF3304D2A74202D9ACF102032C4454
:1005CC00E41B43EA0040C0E7C2F12003954094408D
:1005DC0020FA03F12EFA03F34FEA154E9040AFB216
:1005EC000343B1FBFEFC0EFB1C10190C0CFB07F8B3
:1005FC0041EA0041884522D969180CF1FF3004D238
:10060C00884502D9ACF102002944A1EB08019BB248
:10061C00B1FBFEFC0EFB1C110CFB07F743EA01437C
:10062C009F420ED9EB180CF1FF3104D29F4202D934
:10063C00ACF102012B44DB1B41EA004193E760461D
:10064C00E3E76146F7E76046A4E76346B8E7834211
:10065C0006D916B9002108467CE7C6E900E0F9E79F
:10066C00B3FA83F78FB9834201D3724508D8BEEB36
:10067C00020460EB030301209C461EB9002169E7CC
:10068C003846FAE7C6E9004CF8E7C7F1200CBB4046
:10069C000EFA07F522FA0CF42EFA0CF1BA401C43B0
:1006AC0020FA0CF3B8404FEA144901431FFA84FEB8
:1006BC00B3FBF9F809FB18300B0C08FB0EFA43EAF4
:1006CC0000439A4540D9E31808F1FF3004D29A450B
:1006DC0002D9A8F102002344A3EB0A0389B2B3FBAD
:1006EC00F9F809FB183308FB0EFE41EA03418E456D
:1006FC002CD9611808F1FF3304D28E4502D9A8F128
:10070C000203214443EA0040A1EB0E01A0FB029836
:10071C004145CE46434602D306D14D4504D201385D
:10072C00B9EB020E68EB0403002EA7D0B5EB0E025A
:10073C0061EB030101FA0CFC22FA07F3F9404CEAD5
:10074C000303C6E9003199E74046C5E74346D9E7BC
:10075C0030B504468BB00146344807F05DFA1022E0
:10076C00002106A809F0B0F910232146304806AA4A
:10077C0007F00BFDB8B99DF81F309DF819200493B4
:10078C009DF81E309DF8181003939DF81D302948D4
:10079C0002939DF81C3001939DF81B3000939DF83B
:1007AC001A3007F039FA4FF480522146204807F0EE
:1007BC00F2FC054628B101461F4807F02DFA0BB094
:1007CC0030BD07F0EFFC1022294606A809F07CF991
:1007DC0021461023164806AA07F0D7FC014608B19B
:1007EC001648EAE79DF81F309DF8192004939DF8F0
:1007FC001E309DF8181003939DF81D30104802937D
:10080C009DF81C3001939DF81B3000939DF81A3015
:10081C0007F002FA04220B4806A909F05DF918B991
:10082C00094807F00BFACAE70848FAE75CBE000073
:10083C00249D00007FBE0000B7BE0000D5BE0000A6
:10084C00EABE000048C5000022BF000029BF00001E
:10085C002DE9FF477B4B06467B48029307F0DCF9FA
:10086C007A4807F0EBF9002303AD03932A460423DF
:10087C004FF47F21304607F088FC58B99DF80F30B3
:10088C009DF80D2000939DF80C109DF80E307048CB
:10089C0007F0C2F94FF47F214FF48052304607F035
:1008AC007AFC04460146B8B16A4807F0B5F96A48C3
:1008BC0007F0C4F90421694807F0AEF9B3684FF4A6
:1008CC007F215C683046042302AAA0470146002819
:1008DC0000F08780624852E0624807F09DF9624858
:1008EC0007F0ACF907F05EFC04232A464FF47F2195
:1008FC003046039407F049FC044610B101465B48AE
:10090C003DE09DF80F309DF80D209DF80C100093E4
:10091C0057489DF80E3007F07FF9042229465548B8
:10092C0009F0DAF800285AD04FF47F21039A524884
:10093C0007F072F9514807F081F92F46DFF840A112
:10094C00DFF84091DFF8408117F8012B2146FF2A90
:10095C000CBF53464B464046013407F05DF9042C5E
:10096C00F2D14A4807F06AF94FF480524FF47F21D4
:10097C00304607F010FC074630B10146444807F0FA
:10098C004BF904B0BDE8F08707F00CFC4FF47F2165
:10099C0023462A463046039707F0F7FB014608B179
:1009AC003C48ECE79DF80F309DF80D209DF80C109D
:1009BC00009339489DF80E3007F02EF9224629464F
:1009CC002C4809F089F830B1344807F037F934482D
:1009DC0007F034F9D5E7334807F030F967E73248C8
:1009EC00FAE74FF47F21039004232A46304607F0A0
:1009FC00CCFB0146002882D10422294602A809F02A
:100A0C006BF808B92948E3E7294807F017F92F468E
:100A1C000526DFF8A080DFF8A090DFF8A0A002ACDC
:100A2C00013EAED014F8012B791B17F8013B01F5F0
:100A3C007F219A4214BF404648460090504607F02A
:100A4C00EBF8EDE755AA669960BF00007FBF000088
:100A5C0094BF0000BFBF000012C2000027C20000FC
:100A6C0046C20000D7BF0000FEBF000039C0000026
:100A7C0050C0000048C500007BC00000BFC0000093
:100A8C0026BF00004CBF0000D8C0000002C100000F
:100A9C001FC1000038C1000062C1000090C10000FD
:100AAC00B1C10000E3C10000FBC100005EC2000048
:100ABC0085C2000057BF000051BF0000ADC200004E
:100ACC002DE9F04F0446454B85B04548029307F09D
:100ADC00A3F8444807F0B2F84FF47F214FF40052CA
:100AEC00204607F058FB0146C8B13F4807F094F880
:100AFC003E4807F0A3F84FF47F252A4604213C48D2
:100B0C0007F08AF8A36829465E682046042302AAE7
:100B1C00B047014648B3374807F07EF81BE04FF466
:100B2C007F25354E039029460423204603AA07F05F
:100B3C002CFB014620B13148EEE74FF48015F2E76B
:100B4C000422304603A908F0C7FF38B12946039A9E
:100B5C002B4807F061F805B0BDE8F08FB5F5801FA4
:100B6C00EBD1284807F06AF8C2E703AF2946039097
:100B7C0004233A46204607F008FB01460028DAD148
:100B8C000422394602A808F0A7FF40B91E4807F016
:100B9C0055F8B5F5801FDED04FF48015ADE71B4836
:100BAC0007F04CF8B9464FF00508DFF864A0DFF801
:100BBC0064B002AEB8F10108EBD016F8012BA9EB2A
:100BCC00070119F8013B29449A4214BF5046584674
:100BDC000090114807F020F8ECE700BF55AA669981
:100BEC00CBC200007FBF0000BFBF000012C20000DC
:100BFC0025C3000046C2000048C5000039C00000F3
:100C0C00F9C20000FBC100005EC2000085C20000FA
:100C1C0057BF000051BF0000ADC2000010B52E4CF4
:100C2C00204608F049FC28B921682C4807F0F7FB4E
:100C3C00002010BD24682A48214606F0EDFF294803
:100C4C0006F0FCFF284806F0F9FF284806F0F6FFEE
:100C5C002146274806F0E0FF2046264908F058FFB9
:100C6C00002837D12046244908F052FF90BB234876
:100C7C0006F0E4FF224806F0E1FF2146214806F089
:100C8C00CBFF214806F0DAFF204806F0D7FF2048BA
:100C9C0006F0D4FF1F4806F0D1FF1F4806F0CEFF28
:100CAC000020FFF755FD4FF48050FFF751FD4FF436
:100CBC008030FFF74DFD4FF4A020FFF749FD4FF4B6
:100CCC007F20FFF745FD0448FFF7C2FD0248FFF700
:100CDC00F7FEADE71148DBE7249D000053C300008D
:100CEC006AC300002DC5000081C30000A7C300002B
:100CFC00D1C30000E7C30000EDC30000F3C3000044
:100D0C0016C4000041C4000056C4000099C4000081
:100D1C00BAC4000001C5000025C50000E0C40000F5
:100D2C002DE9F04F91B0009302F004030293C2F34B
:100D3C00C2030133840705460E46DDF86880039232
:100D4C00059340F0BB81041D30B1072909D86FF021
:100D5C001B0011B0BDE8F08F01F007063444C6F15A
:100D6C000806009B4FF000094FF0040A591E4FF083
:100D7C00FF334F460193CB465346CDF810900DB13F
:100D8C00009A22600598002800F3E8809848009AA1
:100D9C00824203D397488242C0F0E080039AA4EBCE
:100DAC00050E92074FEA9E0000F103810F2F00F20F
:100DBC00B180002D00F0058107F140020DEB020C13
:100DCC00019A0CF8200C0CF8102C049801300490AB
:100DDC00E7E07A285DD84B280ED8472859D829281F
:100DEC002DD8252852D054D820287AD02338D0F1A9
:100DFC00000B4BEB000B74E04C382E2849D8DFE885
:100E0C0000F07048484848484848484848484B48CB
:100E1C004848484848484859484B4B595959704BD1
:100E2C006D487048184B184848827F4B48484B48CF
:100E3C007F0000204FF0000B4FF0040A38E0012235
:100E4C002A38C0B202FA00F010EA0E0F49D110F0A5
:100E5C00625C2FD110EA020B43D06046013C544433
:100E6C00B4FBFAF40AFB04F4002D61D0A3EB050CDF
:100E7C00A444B4453FF66BAF002868D1042B47D18E
:100E8C0058F8043B2360042304342AE0019A013A05
:100E9C0001924FF0000B24E011F8010C6C2834D1B6
:100EAC00002011F8023C83466C2BC5D14FF0080A88
:100EBC005346D3E708F1070828F00708073424F055
:100ECC000704F8E802AB35B106982044B0423FF66F
:100EDC003EAFC4E900AB4FF0000B08344FF0080AEA
:100EEC00534611F8010F002878D0BBF1000F7FF4A6
:100EFC0070AF2528F5D14FF0010B019B0133019305
:100F0C004FF0040AECE7584694E700208346A5E727
:100F1C00082B02D06FF015001BE708F1070828F02A
:100F2C000708F8E80223C4E9002308230834D8E7AB
:100F3C0068B9042B02D108F10408A4E7082BE9D105
:100F4C0008F1070828F0070808F10808EDE7059AEA
:100F5C00013A059258F8042B009210E7039A900777
:100F6C0020D54FF0010CA4EB050E4FEA9E00BEF508
:100F7C00007FCFD20F2FCDD8F5B107F140020DEB8A
:100F8C00020E019AC0B20EF8200C0EF8102CBCF117
:100F9C00000F3FF41AAF60F07F000EF8200C09F13F
:100FAC0001090137C5F108024FF6DA7E04340692C6
:100FBC0097E74FF0000CDAE7BCF1000F01D00136D7
:100FCC00EFE7029802360028EBD10098CDE9063104
:100FDC00FFF768FADDE906310644E2E7631BB3F577
:100FEC00806F97D245B9A6F10804E018B1E600BFAE
:100FFC00189C0000D4FB0000029A9B0828602B7000
:10100C009DF81030C2B1EB7085F80290B9F1000F69
:10101C0005D0002208A8C5F1010C97420ED14FF063
:10102C00000AC5F101030DF1200801930DF1300BFD
:10103C00574512D1601B8CE66B70E5E710F8013B4D
:10104C00190608D50CEB040EB64503F07F033FF6EA
:10105C007EAE04F8013B0132DFE7B9F1000F03D09B
:10106C0098F90020002A17DB029BD3B11AF80B2049
:10107C0004F8012B0022019B18191044B0423FF6D2
:10108C0066AE98F80000009904F8010B2046039214
:10109C0008F00DFD039A14440AF1010A08F1010845
:1010AC00C6E798F8002055F822300093029B009870
:1010BC0045F82230FFF7F6F9421CDCE76FF00D0023
:1010CC0047E600BF2DE9F04F97B000AFD7F880B0DE
:1010DC003B62CBF3C0030446894690F802A0FA6247
:1010EC00BB6141B9457800780AEB800020444D453E
:1010FC0017D8A0EB0409E378FB61BAF1000F02D01A
:10110C001BF0010F16D1FB6953BBFB6A1BB149469F
:10111C0020463A6A98474D4628465C37BD46BDE89E
:10112C00F08F461C3046FFF7BDF90130304409F111
:10113C000109DCE7626823787A62FA6A99007961BE
:10114C0004EB8301002A40F001810E464FF00008A9
:10115C004D4601EB0A094E454CD101EB0A0610E055
:10116C001BF0020FD1D023789A007A61626804EBED
:10117C0083017A62FA6A002A77D14D46904601EBD8
:10118C000A061BF0050F0CBF02230123FB62FB694F
:10119C0006EB430A0BF00203BB625645BCD016F8B3
:1011AC00021B16F8013C54F82390994B994502D335
:1011BC00984B994536D3BB69002B40D0786A07F021
:1011CC0007F900283BD0E9468AB06A46924B536136
:1011DC007B6AC2E906314FF4007313848F4B42F8DB
:1011EC00103F00234FF412518D4800F017FD023DC3
:1011FC00CD46D2E716F8013BF96254F82300FFF70D
:10120C0051F9D7F88430F96A01304BB1D7F88830EE
:10121C0098453EBFD7F8843023F8180008F1010830
:10122C00054498E7BB6923B1786A07F0D1F8002828
:10123C00C9D11BF0010F05D1FB6AED1AADE7BB6AF2
:10124C00002BAAD04846FFF72DF9D7F8843053B1BC
:10125C00D7F8883098453FBFD7F88420431C22F834
:10126C00183008F10108054497E7BAF1000F73D064
:10127C001BF0040673D0D046002607F148005246F6
:10128C003B61B96208F013FCB96A3B6901EB0A02D5
:10129C00BA62FA69F9695200FA60BA6A02EB410261
:1012AC003A610BF00202BA603A69B96A8A4258D1C3
:1012BC0062781BF0020F18BF00217A6208BF4FEA58
:1012CC005801B2181BF0010FD2B240F09F801BF0F6
:1012DC00040F14BF40460020BB616270A070E17027
:1012EC0020463A6A7969FB6A9847051EFFF614AFE7
:1012FC00BB69414623707B6A3A6A6370FB6984F868
:10130C0002A0E37007F14800FB6A9847B0F10008AF
:10131C00C0F2BA807B69A9EB0A01C91AFB683A6A68
:10132C00C91AD7E90A0398470028C0F2AF804FF0DA
:10133C00000BA84408EB000507F1380AB34571D33C
:10134C0000213A6A0846FB6A9847E5E656464FF094
:10135C00000807F1380092E75646D04696E7B046AB
:10136C0094E7BA6A12F8021B12F8015CBA6254F8DC
:10137C002500274A904202D3264A90421ED3BA69CE
:10138C0032B1786A7B6007F023F87B6800288BD138
:10139C00BA6802BB08F1280207F1300C08F1010011
:1013AC00944407F1580208F1020852FA80F00CF844
:1013BC00101C5FFA88F800F8105C75E7BA693AB14E
:1013CC00786A7B6007F004F87B6800287FF46CAFC8
:1013DC001BF0010F09D006F1280207F13000711C37
:1013EC00161806F8205CCEB25EE71BF0040F3FF433
:1013FC005BAF08F1280207F1300008F1010102EBA4
:10140C00000808F8105C5FFA81F84DE7002063E7EC
:10141C00189C0000D4FB00004CC500000400000127
:10142C0084A600001BF80A3054F8239087F8373054
:10143C00D7F884302BB3D7F888309B4521D2D7F816
:10144C00843033F81B8001213A6AFB6A07F13700BC
:10145C00984700281ADB0544B8F1000F06D148461E
:10146C00FFF720F800F101081FFA88F841464846BA
:10147C003A6AFB6A9847002808DB05440BF1010B1C
:10148C005CE74FF00008DEE7454645E6054643E6D7
:10149C00014B1860704700BF0000002080B5054666
:1014AC000E461746984605F045FE034608F0A4FB89
:1014BC000446DFF81890424649F800303946304669
:1014CC00A84754F8090001F0A7F900BF0800000074
:1014DC002DE9F047058B04462807904611D40229C4
:1014EC0005F0070540F0CC80204607F008FA78B1EB
:1014FC000138218B042811D8DFE800F0C2106D856B
:10150C00950001290CBF45F0100545F020052583F9
:10151C0088F31188BFF36F8FBDE8F08701F0070ADD
:10152C00AA4500F0A5800027B9463E46A368002BCB
:10153C0000F0BC8041F00801218388F31188BFF3CF
:10154C006F8FA168002900F0BA800D68002900F0A7
:10155C00B680334652462046D1F80480C047002D51
:10156C0076D02B6829461D46F0E701F007035A1F79
:10157C00012A1BD8002221F00701062B276889B20B
:10158C00C4E9002209D13B4603E0628B013262833D
:10159C001B68002BF9D141F002012046218307F092
:1015AC00AEF900287AD041F0200176E0042B0AD164
:1015BC0021F0070189B22046218307F0A0F910B170
:1015CC0041F020012183218B01F0070AAA454FD05D
:1015DC000027B946AAE7236921F0070141F006016B
:1015EC00062DD3F8009021832DD1B9F1000F3FD0F7
:1015FC0041F00801218388F31188BFF36F8F2046D7
:10160C003949C84729E021F00701236941F0040159
:10161C0089B2042DD3F804902183E6D000274FF033
:10162C00040A3E4682E721F00701236941F00501D7
:10163C0089B2052DD3F808902183D6D000274FF01E
:10164C00050A3E4672E700274FF0060A3E466DE754
:10165C002B4687E7B9F1000FD1D1EFF31188202386
:10166C0083F31288BFF36F8F238B23F0080323833C
:10167C00258BEA062ED525F01003238305F00705EC
:10168C006669218B002EBFF670AF00232768C4E972
:10169C00003321F0070141F001012183218B4FF030
:1016AC00000901F0070AAA457FF440AF002F9CD037
:1016BC0041F00801218388F31188BFF36F8F002F4D
:1016CC00C8D03D68394633465246204607F043F9A8
:1016DC002F46F4E7AB067FF51BAF25F020032383E1
:1016EC0005F0070500E700BF8F8900002DE9F047E2
:1016FC00044607464FF00109DFF8508014B938460C
:10170C00BDE8F08794FAA4F5B5FA85F509FA05F366
:10171C002E0108EB05156FEA030A24EA03042B7B60
:10172C00002BEBD058F806301B694BB94644736854
:10173C0004222846196807EA0A0700F05BFADDE77D
:10174C00284698470028D9D1F0E700BFFCA6000036
:10175C0030B5002289B00F490F4808F07BF8002201
:10176C0000230024CDE906230E230C4DCDE90334D0
:10177C004FF440722846CDE90144094B09490094C5
:10178C0005F03EFA0849284607F027FF204609B025
:10179C0030BD00BFB91700002807002090020020C0
:1017AC00A51A0000A012002000C60000014805F098
:1017BC0049B800BF640200202DE9F04780461F485D
:1017CC000F4607F0ACF90646002830D00025284615
:1017DC00BDE8F087237B6BB12368DB680BB1204637
:1017EC00984723681B69D3B963680422204619689B
:1017FC0000F000FA013610344C45EBD3B8F1000F71
:10180C00E5D0002DE2D02846FFF770FF0546002FEB
:10181C00F7D0002140F2391007F07BFFF1E72046AA
:10182C0098470028E0D00AFA06F31D43E2E7054684
:10183C004FF0010A024CDFF80C90DDE7F8090020AC
:10184C00FCA600000CA70000014B53F820007047C9
:10185C006CA7000008B5034608462BB1044A136078
:10186C0000F072FC002008BD6FF01500FBE700BF14
:10187C000400002010B5044C237813B9034804F07D
:10188C00E1FF0123237010BD96120020640200209A
:10189C0010B50446094807F042F93CB1084BD3E8AF
:1018AC00EF1F0139C3E8E21F002AF8D1054807F001
:1018BC00DDFFBDE81040044804F0C4BFF00900206F
:1018CC00F4090020280700206402002000200146B3
:1018DC00034BD3E8EF0FC3E8E21F002AF9D170479E
:1018EC00F009002070B5FFF7F1FF0546074C084ED4
:1018FC00B44200D370BD63685B792BB123685B681D
:10190C0013B12946204698471034F1E7FCA6000095
:10191C000CA7000010B5044C0449204606F088FEC4
:10192C00034B1C6010BD00BFB001002058A7000085
:10193C00E809002008B50023064A07491370074A36
:10194C0007481360074A1360FFF784FFBDE808409F
:10195C00FFF7E0BF9712002040420F00F009002073
:10196C00278B0000F40900200146002200230148C7
:10197C0006F07FBEB0010020014806F018BF00BF82
:10198C00B0010020024B0146186806F064BF00BF8E
:10199C00E8090020014806F099BF00BFB001002003
:1019AC0070B5264B1878002847D0FFF7E5FF0546A1
:1019BC0070B1234BD3E8EF1F0139C3E8E21F002AB3
:1019CC00F8D1204C204EB4422DD32846FFF7DAFF35
:1019DC001E4B1F4C1B68002B19DD07F039FF4FF411
:1019EC007A75A0FB050647F61222002305FB016160
:1019FC00FEF73EFDD4E90032C01A40F2E93361EB48
:101A0C000201984271F1000101D3FFF76BFFD4E999
:101A1C00003213F57A7342F10002C4E90032BDE8DA
:101A2C007040FFF7B7BF63685B7923B12368294621
:101A3C0020461B6898471034C5E770BD96120020ED
:101A4C00F4090020FCA600000CA70000F0090020FF
:101A5C002007002070B50D4D297861B90120FFF7E2
:101A6C00ABFE0B4C0B4EB44206D3FFF799FF00288C
:101A7C00FBD101232B7070BD63685B791BB12368AC
:101A8C0020469B6898471034EDE700BF9712002062
:101A9C00FCA600000CA7000000212DE9F047084629
:101AAC00FFF78AFE044658B340F21B684FF000095A
:101ABC0008F0A2F81B4B1C4A1B58136033B11B4B8C
:101ACC001B68092B02DD1A4804F0BCFE0025194FD7
:101ADC00DFF85CA044B12046FFF708FE044618B9B5
:101AEC004FF0FF384FF0FF39FFF75AFF064628B981
:101AFC00B5B942464B46504604F0D8FE3546E9E7A8
:101B0C004FF0FF384FF0FF39D2E72B689B691BB1C0
:101B1C0000222846114698471035BD42F5D3E8E718
:101B2C00054DFAE708000000EC090020F40900203C
:101B3C00640200200CA70000FCA6000013B5184896
:101B4C0006F0EDFF174B1B7873B1EFF311842023D4
:101B5C0083F31288BFF36F8FFFF722FF84F3118892
:101B6C00BFF36F8F02B010BD0F4B1B68002BF9D069
:101B7C0050B9002200230D48CDE9002347F612226C
:101B8C00002305F0A3FDEDE70928EBD1074807F08A
:101B9C006DFE074802B0BDE8104004F053BE00BF14
:101BAC00F409002097120020EC09002028070020DF
:101BBC006402002010B5064B04461B68984721466A
:101BCC00A060044806F0D4FDBDE81040FFF7B6BF96
:101BDC0004000020B0010020044A054B9B1AB1EB15
:101BEC00D30F34BF52F83100002070477CA60000A0
:101BFC00FCA60000084B10B4C31A44681B11013337
:101C0C00237143689A7101224368196043685A71C1
:101C1C0010BCFFF72FBE00BFFCA600002DE9F04F53
:101C2C008FB0C1F34A2804AF0D469146B8607B6073
:101C3C000C0DB8F1000F63D000264FF0040B4FF0E1
:101C4C000A0A07F11403C7F80C80C7E907667E621D
:101C5C000193CDF808B0CDF800A007F11C03324673
:101C6C004846F968FFF72EFAB0F5006F03461CD30F
:101C7C006C468AB0D9F8041004AB26481A46C3E95E
:101C8C00050140F2FF71D9614FF400711984224BA8
:101C9C0042F8103F4FF4125133462048FFF7BEFF75
:101CAC00A5462C37BD46BDE8F08FC0F30A0804F1F9
:101CBC001700184420F0070080083B60FFF754FE23
:101CCC0068F35325044690B13B6800F11001C7E955
:101CDC00083607F11403F961CDE900A3CDF808B07B
:101CEC0048460F4AF96807F11C03FFF7EBF968F354
:101CFC0053252A4620467B68B96806F042FFD0E798
:101D0C0004F1170020F007008008FFF72DFE0446B1
:101D1C00EDE700BF15C6000004000001B4A60000EA
:101D2C00638B00002DE9F04F87B00446DDE9105AB3
:101D3C00DDE91279934698460391BFB13B46524672
:101D4C0010210020CDF80090CDF81490FEF7E8FF9C
:101D5C00B0F5006F06460AD340F2FF730221174A12
:101D6C00174807B0BDE8F04F06F064BF3E4605F1DA
:101D7C001700304420F007008008FFF7F5FD04F051
:101D8C0007040BF0070BE40044EA8B1444EA4624E6
:101D9C0044EA0554054640B13FB13B4652463146F4
:101DAC00CDF800901030FEF7BBFF43462246284684
:101DBC00039907B0BDE8F04F06F0E3BE54C600002F
:101DCC00B4A60000406820B1034BC01A40F3CF000A
:101DDC0070474FF0FF3070477CA600000EB403B57F
:101DEC0003AB53F8042B01460448019301F046F869
:101DFC0002B05DF804EB03B0704700BFA38C000089
:101E0C00CA0605D48B064CBF02490349FFF7E6BF4F
:101E1C00704700BF8DC600008CC600002DE9F04F46
:101E2C0089B09B46149B9DF84CA00693159B0446C9
:101E3C000593169B0D469046179E0493BAF1000F1E
:101E4C0000F09D8006F48073079306F082FE06F086
:101E5C000209024600283ED020469149FFF7BEFFFA
:101E6C000746B9F1000F08D016F0440F35D12A46B9
:101E7C0020468C49FFF7B2FF074406F0010353B12B
:101E8C00894B204653F82A20884B8949002A08BFE1
:101E9C001A46FFF7A3FF06F48073002B49D006F017
:101EAC000803002B63D1B8F1000F66D042462046E0
:101EBC008049FFF793FF0546069B3D44002B6DD1EF
:101ECC00049B002B73D1F30700F1E48031462046CC
:101EDC00FFF796FFD8E00746C3E7774B1868002852
:101EEC00CAD0764B4FF47A791B684FF03C0CB5FB9B
:101EFC00F3F5B5FBF0F14FF4616300FB115509FBF1
:101F0C0005F5B1FBF3F2B5FBF0FE03FB121100FB80
:101F1C001E55B1FBFCF309FB05F5B5FBF0F50CFB0D
:101F2C00131120460091CDE901E56549FFF756FFF5
:101F3C00A2E706F00803EBB1624B204653F82A20C7
:101F4C006149FFF74BFF0546B8F1000F05D042463B
:101F5C0020465849FFF742FF0544BBF1000FABD0B8
:101F6C005A4620465949FFF739FF0544A4E74FF07C
:101F7C00000BE1E706F00805E6E745469CE7BBF1F8
:101F8C00010F069B06D1002B64D1049B002B7BD048
:101F9C0000250CE0002BF8D04D485CE04D48069B2A
:101FAC0022464D4906F0E3F9049B002B68D0DFF87C
:101FBC002C81DFF82C91049F3146102F204628BF2E
:101FCC0010274FF0000BFFF71BFF5D4545DC059B11
:101FDC00494620461A78FFF701FF4FF0010B1BF022
:101FEC00070F03D141462046FFF7F8FE5F453BD96A
:101FFC00059B4946204613F80B20FFF7EFFE0BF12B
:10200C00010BBBF1100FEAD14FF0000B2046354904
:10201C00FFF7E4FE5A46059B20469A5CA2F120018C
:10202C005F2928BF2E223049FFF7D8FE0BF1010B98
:10203C00BBF1100F1DD01BF0070F03D141462046FA
:10204C00FFF7CCFE5F455A46E5D841462046FFF7E0
:10205C00C5FEEBE71F485546A1E741462046FFF772
:10206C00BDFE0BF1010BB0E720462049FFF7B6FE91
:10207C00C5E7059B3B440593049BDB1B04939AD15A
:10208C00BAF1000F7FF41FAF204609B0BDE8F04F46
:10209C0006F0F4BD2046054A0549FFF79FFE15E7FB
:1020AC0094C6000098C600007CA700008FC60000F4
:1020BC00BDC60000C0C60000000A0020FC090020BC
:1020CC00A1C6000090A70000C4C60000CAC600004C
:1020DC00D18C0000A38C0000892E0000D7C6000014
:1020EC00CFC60000D9C60000DBC60000D5C6000074
:1020FC0042F20F7373B58B4228BF0B46056804463A
:10210C00052168460D4A05F0B9FD06466368284668
:10211C000B225B680A4906F0A3FD636832466946E8
:10212C0028465B6806F09CFD63681B2228465B68AA
:10213C00044906F095FD02B070BD00BF22CE000030
:10214C00FAC60000DEC6000000210123064A9042B8
:10215C0006D8064A01B901231360054B1860704775
:10216C00012140085B00F2E740420F00FC0900200F
:10217C00000A0020F8B50D460446064F4618B44236
:10218C0001D12846F8BD14F8011BBB6801485B68F7
:10219C009847F4E7E89C0000014B0360002070476F
:1021AC00D8A7000008B5044806F039F9BDE8084086
:1021BC00024806F034B900BF46C700007BC70000D8
:1021CC002DE9F04706460C4600AF002936D0D1E980
:1021DC000012E9468AB06D46A3684FF0050AA8467E
:1021EC001F48C5E90723C5E9050148F810AF0023CE
:1021FC0042464FF421511B48FFF710FDD4E903125E
:10220C00CD466369AD461848C5E90723C5E9050104
:10221C00C5F810A0002342464FF421511148FFF796
:10222C00FDFCCD46E3690121104A0E4806F002FD83
:10223C00A36901210E4A0B4806F0FCFC012E07D1C4
:10224C00EFF305830B4A31460648103B06F0F2FCCF
:10225C002146304604F094F8BD46BDE8F08700BF37
:10226C00A9C70000DCA60000D8C7000007C8000002
:10227C0016C8000044C8000030BFFFF7FDBF00BF08
:10228C002DE9F04105460B4EDFF82C80324606EB6B
:10229C000807CC1B2046094907F009FCA019424647
:1022AC000021083C07F010FCC5F8804007F108003D
:1022BC00BDE8F08100000000040000000CA7000045
:1022CC00074A936893F90E10002907DB5269934271
:1022DC001FBF044A536843F080535360704700BFDC
:1022EC005C0C002000ED00E070B52A4C06460D4653
:1022FC0029482A4906F06DFDA36ADB0647D5264816
:10230C00274906F066FD1120A36A1C0704D5224854
:10231C00244906F05EFD12201E4CA36A990712D5C3
:10232C0021491D4806F055FD636BA26A120609D5BA
:10233C0001211E4A184806F07DFC1EB1A36A23F049
:10234C008003A3621320134CA36ADE0704D5124842
:10235C00174906F03EFD1420A36A9C0604D50E48CE
:10236C00144906F036FD15200A4B9A6AD10658BF5F
:10237C009A6A9A6A920642BF5A6A22F400525A62C8
:10238C009A6A42F0FF029A6200232B7070BD1020F3
:10239C00BAE700BF00ED00E0DCA6000057C8000063
:1023AC006DC80000A0C80000B3C80000CBC8000076
:1023BC00E1C8000000C9000010B5244C2449254890
:1023CC0006F007FDA36A99013ED52248224906F082
:1023DC0000FD1E20A36ADA0104D51E481F4906F031
:1023EC00F8FC1F20194CA36ADB0204D519481C49C0
:1023FC0006F0EFFC0220A36A1C0304D5154819490A
:10240C0006F0E7FC2120114CA36A590304D51148AE
:10241C00154906F0DEFC2220A36A9A0304D50D4868
:10242C00124906F0D6FC2320084CA36ADB0304D522
:10243C0008480F4906F0CDFC2420A36A6FEA034339
:10244C006FEA1343A36210BD1D20C3E700ED00E04B
:10245C002FC90000DCA6000047C900005AC90000C3
:10246C0074C900009EC90000BCC90000E1C900008D
:10247C00FBC9000070B5294C06460D462848294971
:10248C0006F0A7FCA36AD9043CD52548264906F0DA
:10249C00A0FC1720A36A1A0504D52148234906F08D
:1024AC0098FC18201D4CA36A9B0512D51C4820498A
:1024BC0006F08FFCA36BA26A100409D501211D4AFA
:1024CC00174806F0B7FB1EB1A36A23F40043A362BE
:1024DC001920124CA36A590504D51148164906F067
:1024EC0078FC1A20A36ADA050ED50D48134906F0BC
:1024FC0070FC1B20094A936A43F47F4393620023C8
:10250C002B7070BD1620C5E7A36A9B04F2D5044856
:10251C000B4906F05EFC1C20ECE700BF00ED00E070
:10252C00DCA6000026CA00003CCA0000A0C80000BF
:10253C004DCA000066CA00007BCA000096CA0000A3
:10254C0000C900002DE9F0418AB0654B0446D3F870
:10255C000480002600AFC8F3080586F31188BFF38A
:10256C006F8F02F07F43B3F17F4F07D102F00C0362
:10257C00082B12D15B495C4806F02BFC0026344634
:10258C000023FB71EB1E092B00F28980DFE803F0BE
:10259C000A7F827B87878787878510074CBF0C460D
:1025AC000126EDE75149504806F013FC00234C4D31
:1025BC00FB71EB6A9A0705D54D494B4806F009FCAF
:1025CC00002331E0EB6A002B01DA4A49F5E7EB6AAC
:1025DC005B00F5D54849444806F0FBFB6B69A269E2
:1025EC0043F480736B61BFF34F8FBFF36F8F6B69D5
:1025FC0032F8022C23F480736B61BFF34F8FBFF35F
:10260C006F8F4DF602739A4207D0AB6ADBB26BB395
:10261C000120F91DFFF768FE37E023680121374AD6
:10262C00314806F007FB2368FA79DAB907F1080597
:10263C0004F1200C2A4620686168083403C2644502
:10264C001546F7D17A6A002E45D0C2F3080121B99C
:10265C006FEA52226FEA42227A62184607F10801A9
:10266C00FFF7AEFD2837BD46BDE8F081AB6A13F429
:10267C007F4F04D00120F91DFFF7FCFE05E0AB6A8B
:10268C00B3F5803F9CD3FFF797FE0346CCE70020C1
:10269C00F91DBFE70020F91DEEE719498DE7194A2E
:1026AC0018F4F87FE8468AB0174B18BF13466A46F1
:1026BC001649103DC2E905134FF400731384144BF3
:1026CC00D56142F8103F00234FF411510648FFF733
:1026DC00A5FAC54674E722F4FF7222F00102BBE7AB
:1026EC0000ED00E0DCCA0000DCA6000007CB000017
:1026FC001ECB00003FCB00004DCB00006CCB00008C
:10270C0088CB0000C3CA0000AECA0000ACCB0000EE
:10271C0004000001064B5A6942F010025A615A69D2
:10272C0042F480625A615A6922F008025A61704779
:10273C0000ED00E0EFF30880EFF3098101B572467C
:10274C00FFF700FF01BD00BF002080F31488BFF32A
:10275C006F8F002080F30A8880F30B880F4880F37A
:10276C00088802F067FD00200D490860BFF34F8F09
:10277C0000F02CF8202080F311880A484FF40061F7
:10278C00401880F30988EFF314800221084380F38A
:10279C001488BFF36F8F00F0E3F80000E0220020F4
:1027AC0094ED00E0A0150020002318460649D1F84E
:1027BC009020C2F30722934200DB7047C1F8983097
:1027CC00C1F8A0000133F6E700ED00E010B572B6D9
:1027DC00002484F31388FFF7E7FF23464FF0FF3004
:1027EC000C4A03F120010133102B42F82100F8D1DF
:1027FC0000234FF0FF30074A03F160010133102B27
:10280C0042F82100F8D162B6BFF34F8FBFF36F8F40
:10281C0010BD00BF00E100E0084B9B6883420BD168
:10282C00EFF3058343B1064B5A6842F080525A606D
:10283C005A6A22F400425A6204F082BC5C0C0020FA
:10284C0000ED00E017498A684FF030001044EFF3B8
:10285C00098C80E8F01F202080F31288BFF36F8F63
:10286C00114F4FF000664A698A603E604FF0800459
:10287C00141920680D4C2060D2F884000023C2F893
:10288C00843080F3118802F1300090E8F01F8CF353
:10289C00098802F1000004B506F0A3FABDE8044073
:1028AC00704700005C0C002004ED00E0280A0020BA
:1028BC001EF0040F0CBFEFF30880EFF30980816961
:1028CC0011F8021C0229FFD001B5724606F076FA07
:1028DC0001BD00BF00B2002807DB01234109034AF8
:1028EC0000F01F00834042F82130704700E100E007
:1028FC0000B200280CDB01220649430900F01F003E
:10290C008240203341F82320BFF34F8FBFF36F8FEA
:10291C00704700BF00E100E0054B420953F822204C
:10292C00012300F01F0003FA00F01040704700BFB5
:10293C0000E100E000B2002801F10101ACBF00F1A0
:10294C006040064B4FEA4111C9B2ABBF00F5614084
:10295C0000F00F0080F800131954704714ED00E0DC
:10296C000B4A08B50B4B22F07F029A60BFF34F8FD6
:10297C00BFF36F8FD3F8882022F47002C3F888203D
:10298C0003F0EAFD04F0FCFC00F048F803F024FE30
:10299C000000000000ED00E042F8203C009B0B49D9
:1029AC0042F81C3C019B21F0010142F8183C029BAF
:1029BC0042F8081C42F8143C4FF0807342F8043C77
:1029CC000023203A0265C0F884307047A914000037
:1029DC0000B50B4B15469860D0F88020094B0E467D
:1029EC001A60036F83F30B882C4686F3098800204A
:1029FC00054B98472046002100220023034C20471A
:102A0C005C0C0020280A0020F78D0000A91400009F
:102A1C001022014B1A61704700ED00E000232020CA
:102A2C0040F20F1210B5044CE1180133934281F8B7
:102A3C000003F9D110BD00BF00E100E008B5EFF3D1
:102A4C000583064A103B02EBC30152F83300496878
:102A5C008847BDE80840FFF733BC00BF4C9D000021
:102A6C001FB5094C094A23460121094800F012F907
:102A7C0000230393074B0121E41A01A8019302944C
:102A8C0000F012F904B010BD00F00220000000208C
:102A9C00D8A700009002002010B50C7A0B6804F047
:102AAC001F0223F01F031A43CB68640923F01F0392
:102ABC00054943EA440343F00103C1F89800C1F807
:102ACC009C20C1F8A03010BD00ED00E010B50A4B01
:102ADC00D3F89030C3F30723013B984208D9012166
:102AEC000346064A064806F0A5F86FF0150010BD1F
:102AFC00FFF7D2FFFBE700BF00ED00E0C3CB000007
:102B0C00CCA600002DE9F04F8946144606464FF03E
:102B1C000008514D85B0C84527DAD6F804A0BAF1A3
:102B2C00000F44D0BAF11F0F17D91AF01F0F14D190
:102B3C00D6F800B01BF01F0F0FD1584606F078F9ED
:102B4C0007460AEB0B00013806F072F9874210D0E9
:102B5C006FF01507414A3B4601E04346404A0121CC
:102B6C00404806F067F86FF01504204605B0BDE844
:102B7C00F08F17F1160FEDD0BC42EBDDC5F8987055
:102B8C00D5F89C10C5F89870D5F8A03021F01F012D
:102B9C0043F01F0BD6E900321A44994202F1FF3A76
:102BAC001DD1D34507D13146F8B206F04AF908F1E8
:102BBC0001080C36AFE73146C5F89870D5F89C3053
:102BCC0022F01F0203F01F031343C5F89C30E0B240
:102BDC0006F037F910F1160FC5D0441CE7E7C5F81D
:102BEC009870D5F8A020013B23F01F0302F01F02C0
:102BFC001343D3453146E0B2C5F8A030E8D006F017
:102C0C0020F910F1160FAED0C5F89870D5F89C20AD
:102C1C009DF808300BF1FF3B62F304038DF808308C
:102C2C00D5F8A0309DF808205B0863F347128DF8A7
:102C3C000820D6E900321344009323F01F035B44B1
:102C4C00A3EB0A03013023F01F036946C0B20393C0
:102C5C00FFF73CFFBEE700BF00ED00E00CCC00002E
:102C6C00E9CB0000CCA600000522044BC3F894204D
:102C7C00BFF34F8FBFF36F8F704700BF00ED00E0C5
:102C8C00BFF35F8F0022024BC3F89420704700BF44
:102C9C0000ED00E010B5034C2278FFF733FF2070F5
:102CAC0010BD00BF991200202DE9F74F294D8A461F
:102CBC0006464FF00008AB46274FD0451BDAD6F836
:102CCC000490B9F1000F3FD031680846019106F02D
:102CDC00AFF80199044609EB0100013806F0A8F899
:102CEC0084424FF014021D4B08D002FB08F36FF026
:102CFC0015024BF8032003B0BDE8F08F14F1160F4A
:102D0C002C60F8D01978A142F5DD02FB08B0C7F8A9
:102D1C009840C7F89840D7F89C4000F10801007B18
:102D2C0064F304000871D7F8A0000C79400860F334
:102D3C0047140C71D7F89C1021F01F016960D7F86B
:102D4C00A01021F01F01296108F1010814350C367F
:102D5C00B3E700BF2C0A002000ED00E09912002020
:102D6C00F0B54149414CD1F890302568C3F30723A5
:102D7C009D4287B075D80020FFF782FF3C4BC1F80D
:102D8C00C030854216D13B4C01A82570FFF704FAE0
:102D9C0000250646384FAE4213D100202378324925
:102DAC00D1F89020C2F30722934254DBFFF75CFF6B
:102DBC0000202FE0616801EB0011FFF76DFE013080
:102DCC00DFE70199280101EB0513DA683A40B2F507
:102DDC00001F21D0B2F5800F2BD0B2F5801F38D157
:102DEC005A689B680958013B22F01F0003440120DC
:102DFC00844623F01F0340EA4C10CDE902218DF8E4
:102E0C00100002A920780593FFF760FE00281DDA58
:102E1C006FF0150007B0F0BD5A689B680958013B6C
:102E2C0022F01F0003444FF0020C012023F01F037B
:102E3C00E1E75A689B680958013B22F01F000344E4
:102E4C004FF0000C022023F01F03D4E7237801334A
:102E5C00237001359FE7C1F89830C1F8A000013309
:102E6C009EE74FF0FF30D5E700ED00E0E4A700004F
:102E7C00AAFF4400991200200000F0FFF0B587B0C3
:102E8C0007460E4614460021102268461D4606F0E1
:102E9C001BFE02238DF80230054B2A46214668465C
:102EAC00CDE90476019304F015FF07B0F0BD00BF27
:102EBC00818E000008B5024B1B689847002008BDA6
:102ECC00400A0020034B044A1860937843F0020335
:102EDC0093707047400A00201000002008B5064986
:102EEC00064821F00701C1F1005202F53C3205F011
:102EFC00E6F9002008BD00BFE7260020440A0020A8
:102F0C0008B5284A284B1A6000F066F841F6F873A9
:102F1C002648D0F82416C1F3080203EA51331321D2
:102F2C0082F48072883201FB0233214A590ADB0594
:102F3C0048BF0131C2F80419D0F820364FF47A603A
:102F4C00C3F30801C3F30943434342F21C5081F419
:102F5C00807101F2172100FB01334FF47A701B0AC8
:102F6C00B3FBF0F100FB1133B3F5FA7F28BF01314D
:102F7C000E4BC2F81C17D3F840131C290CD1D3F8F4
:102F8C004433012B08D13423C2F82436D2F83C3612
:102F9C0023F40023C2F83C360122054B0020C3F871
:102FAC00002608BD0020A1074400002000C0FF003F
:102FBC000000125048B1054B054A1B68B3FBF2F3F5
:102FCC005843044B43F0010318477047440000205A
:102FDC0040420F0040A700000122024BC3F804241A
:102FEC00704700BF002008E0084B70B5C31A0D46AF
:102FFC0007499B10044659434022064805F04EFFF2
:10300C002B4601462046BDE870401847640A002054
:10301C00B76DDBB6989C0000402373B50B4C009346
:10302C00041B0B460D460A49A41061430646094A87
:10303C00094805F05EFF011E05DA30462B4602B04A
:10304C00BDE87040184702B070BD00BF640A002094
:10305C00B76DDBB6678F0000989C000070B500223E
:10306C000121044640F20510FFF764FC104802F001
:10307C0005FA104B984218D1206900F0A7F902F01C
:10308C000FFA26690C49304605F088FC00280BDB4A
:10309C00012535642469084904F11C0005F07EFC07
:1030AC00002801DB0020E56470BD6FF00400FBE735
:1030BC00958F00000000AD0B10A800001FB500227A
:1030CC000123CDE902236B46084ACDF800D0CDF898
:1030DC0004D005F03BFF002805DB43F60952002322
:1030EC00684603F0E3FB05B05DF804FB7F8F00003E
:1030FC0010B5EFF31184202383F31288BFF36F8F85
:10310C00074A136823F00201DB07116002D4012087
:10311C0006F004F984F31188BFF36F8F10BD00BF64
:10312C00B40A00200C22104B014602FB0033002095
:10313C0030B4D3E90E529863EFF31180202484F35A
:10314C001288BFF36F8F1C6C04F0C00444F00204AF
:10315C001C6480F31188BFF36F8F1DB12B4630BCFC
:10316C000248184730BC7047640A0020989C000045
:10317C0010B4EFF31182202383F31288BFF36F8F07
:10318C001648016841F002040460C80707D482F3B2
:10319C001188BFF36F8F012010BC02F097B9104952
:1031AC00D1F80C14C903F2D5EFF3118083F3128814
:1031BC00BFF36F8F0B490B6C03F0C00343F002039A
:1031CC000B6480F31188BFF36F8F82F31188BFF308
:1031DC006F8F002010BCFFF7A5BF00BFB40A002002
:1031EC0000E01050640A0020C3B21C20014A03FB0B
:1031FC0000207047640A0020F8B5012206462349D6
:10320C00D1E8EF3FC1E8E02F0028F9D133B92049CC
:10321C0020484B60CB608A6005F0D3FB731E012BFA
:10322C001BD806F0D4F90446C0B91B4B1B78ABB1C4
:10323C0004220546194BC3F80823184FD7F84C2421
:10324C00D7F84C34D20312D59B0701D0012E0ED1E6
:10325C00BCB185F31188BFF36F8FF8BDEFF3118507
:10326C00202383F31288BFF36F8F0124E5E71CB191
:10327C00284605F0CEFDE1E70021202006F049FAB2
:10328C00DCE70422054BC3F80423E6E7600A0020C0
:10329C00500A0020800A00209D12002000E01050EF
:1032AC0001220B4BD3E8EF1F002903D1C3E8E02F19
:1032BC000028F7D10AD100230649CB60064B4B609E
:1032CC0003238B60054B186805F07BBB704700BF70
:1032DC00D40A0020BC0A0020AD330000B80A00203C
:1032EC0007B5002200230848CDE90023074A002334
:1032FC0004F0ECF9064B186805F0BAFB0022054BFC
:10330C001A6003B05DF804FBF001002048E80100EE
:10331C00B80A0020D40A0020F7B51C4E3F21B7682C
:10332C003046FB6898471A4C1A4D40B10023237065
:10333C002B8002F039F90123237003B0F0BD0C216E
:10334C006A4630463B6998470028EFD1124A019BE8
:10335C00217893FBF2F3009A03EB82031BB2B5F9CD
:10336C0000200029E4D09A1A002AB8BF524212B2A7
:10337C00012ADDDC094A013913682170013313601D
:10338C0003B0BDE8F040FFF7ABBF00BF389D0000B5
:10339C009A1200209412002090D00300CC0A002036
:1033AC0008B5074806F088F828B902F0FDF80122A4
:1033BC00044B1A7008BD0448BDE8084003F09CBBE0
:1033CC00389D00009A12002020000020034B044A74
:1033DC00186000231360034A13607047B80A00207A
:1033EC00D00A0020CC0A00200022024B1A70FFF7F2
:1033FC0057BF00BF9A120020014806F037BA00BF31
:10340C00F0010020024A136801331360FFF768BF14
:10341C00D00A002008B5074806F04EF838B1064827
:10342C00FFF750FD0448FEF733F8002008BD6FF09D
:10343C001200FBE7E89C0000493400000A2838B56C
:10344C000446074D04D1AB680D2128465B689847AC
:10345C00AB6803485B68E1B29847204638BD00BFB3
:10346C00E89C00000048704734A80000F8B50369D8
:10347C000D46DB6C00AF8B421ED0416851F8080B37
:10348C0083684FF6FF725C682B46A047041E10DA67
:10349C006E4688B06A46094BD461C2E905350423EF
:1034AC0042F8103F00234FF401510548FEF7B6FBDC
:1034BC00B5462046BD46F8BD0024FAE774CC0000A2
:1034CC00A4A6000070B5446805694FF0FF324FF0B8
:1034DC00FF33284603F0EAF92068B4F864208368C7
:1034EC0004F108015E6804F11403B047041E09DA04
:1034FC0022460549054805F06BFD284603F0A2F964
:10350C00204670BD0024FBE79ECC0000A4A6000062
:10351C002DE9F74F054617461E464FF001090DF1F0
:10352C000708D5F804B0D5F810A0DBF8743093F880
:10353C003E3093B10BF13C012846FFF797FF002872
:10354C0004460DDA02461849184805F041FD22469A
:10355C001749164805F03CFD19E00BF11401EBE797
:10356C00DBF874102846303105F044FDCAE90798A1
:10357C000AF12402DBF800000BF1080105F01BFD39
:10358C00041E08DB9DF8074014F0010406D1204608
:10359C0003B0BDE8F08F22460649D5E738463146E0
:1035AC0006F0B7F8BDE700BFBBCC0000A4A6000036
:1035BC00F2CC0000DBCC00002DE9F04F4768B1F1F4
:1035CC00000805461646D0F81090D7F804A085B030
:1035DC006DDB08EB0203534569D842EA0803C3F3D9
:1035EC000B03002B63D1FFF76DFF041E15DB07F1F6
:1035FC001403029309F1240307F13C0B03934EB11E
:10360C00284605F024FD041E0BDA0121294A2A481C
:10361C0005F007FB284605F0E0FC204605B0BDE8A8
:10362C00F08F56457B6F22D193F87E30EBB1594623
:10363C002846FFF71BFF00280446EEDB796F28466F
:10364C00703105F0D7FC0026039A386807F10801A1
:10365C0005F0B1FC041E22DAD9F814300121174A06
:10366C001548009405F0F0FAD4E70299E0E793F8D6
:10367C006E3093B159462846FFF7F8FE00280446F1
:10368C00CBDB796F2846603105F0B4FCA6F580568B
:10369C00C9F8188008F58058D6E70299EBE7202284
:1036AC0000232846FFF734FF041EA8DAB2E76FF0B8
:1036BC001504B2E71CCD0000A4A6000031CD00001B
:1036CC002DE9F04F05460F4691461C4685B0002B60
:1036DC0064D0002964DBD0F80480CB18D8F804201F
:1036EC0093425DD8D0F810A0FFF7ECFEB0F1000BC0
:1036FC001CDB08F11403019308F13C0302930AF15B
:10370C0024030393FEB2C6F58076B6B2A6422846D1
:10371C0088BFA6B205F09BFC00280BDA5A4622495A
:10372C00224805F055FC284605F057FC584605B0D4
:10373C00BDE8F08FD8F8743093F85E30EBB1029995
:10374C002846FFF793FE00288346EFDBD8F8741069
:10375C002846503105F04EFCCAE90769CAF81870C2
:10376C00039AD8F8000008F1080105F024FCB0F128
:10377C00000B04DA5A460E49D2E70199E0E7202201
:10378C0000232846FFF7C4FEB0F1000B3744B144C8
:10379C00A4EB0604C7DB002CB4D1C4E79B46C5E7F9
:1037AC006FF0150BC2E700BF56CD0000A4A60000B9
:1037BC0073CD00002DE9F047D0F804A091460546E2
:1037CC000F461E46D0F81080DAF804201BB90024EE
:1037DC002046BDE8F087002934DBCB18934231D862
:1037EC00FFF770FE041EF3DBDAF8743093F82E301A
:1037FC002BB30AF13C012846FFF738FE002804469B
:10380C00E6DBDAF874102846203105F0F3FBC8E942
:10381C000769C8F8187008F124020AF10801DAF8EF
:10382C00000005F0C8FB0446284605F0D6FB002C2A
:10383C00CDDA22460549064805F0CAFBC8E70AF16D
:10384C001401D8E76FF01504C2E700BF90CD00005B
:10385C00A4A600002DE9F0474768D0F8108086B088
:10386C000E4607F10809244908F1240A054605F01B
:10387C00C1FB52464946386805F09DFB041E08DA28
:10388C0022461E491E4805F0A3FB204606B0BDE8A3
:10389C00F08797F87C30022B29D1012410220021CB
:1038AC0002A806F011F9B601284602A98DF80840C5
:1038BC0003948DF814408DF8076005F09BFB0DF117
:1038CC000703C8E9074352464946386805F073FBBD
:1038DC00041E02DA22460B49D4E7012200232846B3
:1038EC00FFF716FE041E05DA22460749CAE76FF0F9
:1038FC008504CAE70024C8E75CA90000A5CD000038
:10390C00A4A60000C4CD0000EBCD00002DE9F04FC3
:10391C0085B00369D0F8048000AF05467B60D8F809
:10392C00000005F0C9FD0346D8B9D8F800206C4654
:10393C0088B011686A467D48C2E905014FF40071F0
:10394C0091837B4942F8101F4FF4E2517948FEF7FE
:10395C0065F9A5466FF0120420461437BD46BDE844
:10396C00F08F754BD5F804A01B882846BB8100232B
:10397C000AF13C01D5F810B09AF81C60BB73FFF744
:10398C0075FD041E0EDB16B1053E012E23D8002159
:10399C002846FFF75FFF041E13DA22466749654885
:1039AC0005F016FBD8F80000836800219B68984747
:1039BC00002CD1D14FF0FF320121786805F0C6FD03
:1039CC00CAE7012200232846FFF7A2FD041E02DAF3
:1039DC0022465B49E3E728465A4905F00BFB0323D3
:1039EC0007F10C06CBF82060CBF81C30DAF800009D
:1039FC000BF124020AF1080105F0DDFA041E02DACB
:103A0C0022465149CBE7D5F804B09BF81C10D9B924
:103A1C002846FFF71FFF0028044618DA02464B49D8
:103A2C00444805F0D5FADBF878302BB11B681BB194
:103A3C0028469847041E10DA224645493D4805F0B1
:103A4C00C7FA22464349AAE7053901293CD9DBF8D4
:103A5C00783013B11B68002BEAD128460BF1140106
:103A6C00FFF704FD041EECDBDAF874309B7B83BBA0
:103A7C00D5F80490D5F810B0D9F87420927B2AB3FD
:103A8C0009F13C012846FFF7F1FC0028044618DB3D
:103A9C002846D9F8741005F0ADFA0322CBF8206053
:103AAC00CBF81C20D9F800000BF1240209F1080115
:103ABC0005F081FA041E0CDA224627491D4805F050
:103ACC0087FA224625496AE70121A1E709F1140189
:103ADC00D8E7032230460AF1700105F0FDFF0446D9
:103AEC0000283FF45FAF6C468CB06A4697F80CC068
:103AFC007E7BBD7B9AF870009AF871109AF8723040
:103B0C00D3620823DFF858E0C2E90765C2E905EC87
:103B1C00C2E9090142F8103F002344F24001054874
:103B2C00FEF77CF8A5466FF012043BE725CE0000AB
:103B3C0003000001A4A6000030A700003CCE00004A
:103B4C0065CE00004CA900009FCE0000D0CE000036
:103B5C00F5CE000013CF00003BCF000055CF000086
:103B6C0084CF00000023024A0020C1E900237047E3
:103B7C000050160000487047DCA90000024B0B6097
:103B8C0001231360704700BFE4A9000008B50122AF
:103B9C000448114605F0DAFC034B044A0020C3F834
:103BAC000C2508BD280B002000B0045080000080BC
:103BBC002DE9F0412A4B054698420E46144600AFBB
:103BCC004BD8C0F5B21303F580539A4245D8002A5E
:103BDC003AD0E8468AB06A46224B14625361224BB3
:103BEC00C2E90630052342F8103F00234FF424515C
:103BFC001E48FEF713F8C5464FF0FF324FF0FF3367
:103C0C001B4802F053FE40F20113DFF86880224695
:103C1C00C8F80035E6B13146284605F048FFBFF339
:103C2C005F8FD8F81834DA0706D4230704D00123A1
:103C3C00C8F80830BFF35F8F4FF480720D4BC3F898
:103C4C0000250B4802F0FEFD0020BD46BDE8F081CA
:103C5C00FF21284605F038FFE1E76FF01500F4E787
:103C6C00FF4F1600E2CF0000F4CF0000ACA600001E
:103C7C00280B002000B0045010461A46084B10B513
:103C8C00994209D8C1F5B21404F58054A24203D864
:103C9C0005F00DFF002010BD6FF01500FBE700BF15
:103CAC00FF4F160038B545682B69E3B1103528462F
:103CBC0002F0B2F80446B0B90146284602F06EF89C
:103CCC000B4B984211D1224628460A4902F03AF889
:103CDC0022460121DB20FEF72DFE2246012140F277
:103CEC000D10FEF727FE002038BD6FF00400FBE737
:103CFC000000AD0B893E00002DE9F04340F2063583
:103D0C004668D00648BF0320337B02EA050558BF3E
:103D1C00C2F3401087B001F01F07B5F5837F14463E
:103D2C0047EA43178DF8030046D00FD8062D45D02F
:103D3C0007D8B5B1022D14D06FF0150007B0BDE84F
:103D4C00F083B5F5807FF7D101250AE040F202221D
:103D5C00954235D0B5F5407F34D0B5F5007FEBD129
:103D6C0004250123220303FA01F12DD57368596050
:103D7C00326972BB5F2F07F01F034FEA571175D8DA
:103D8C003C4A52F8212084F4803102EB8302D2F8B1
:103D9C008030C1F30041C4F3404423F4706344EA1F
:103DAC00410423F00F031C4344EA800444EA052435
:103DBC00C2F880400020C1E70925D2E70825D0E7EA
:103DCC000625CEE70525CCE7630344BF73689960ED
:103DDC00CEE71036394630460DF1020201F0C0FF35
:103DEC0014F4403F80460CD13946304605F05BFB5D
:103DFC00214B9845DED130469DF8021002F01AF89E
:103E0C00D8E74FF0000901AB3946304603AACDE99B
:103E1C000439CDE90199CDF80C9001F009FE164B4F
:103E2C00984289D114F4003315D09DF8033084F4F2
:103E3C008034C4F300448DF80E3039464B4630467E
:103E4C0003AA8DF80C508DF80D4001F0E7FE0A4BDB
:103E5C009842CDD070E7CDE9043339460DF1030318
:103E6C00304603AA039301F0E3FDF0E7203352F848
:103E7C002330FFDEECA900000000AD0B4209022A42
:103E8C00034670B503D0012A18D0CAB170BD0E4ECE
:103E9C00326951680029F9D0012503F01F030C6821
:103EAC009D400029F2D08A682A4002D030464B68E7
:103EBC0098473CB1236821461C46F2E7034EE7E7DE
:103ECC00034EE5E72346F6E7D49C0000C09C0000B7
:103EDC00AC9C0000F0B5406801F01F04057B87B076
:103EEC0044EA45140569002D63D0B2F5001F00F1BA
:103EFC00100506D12146284605F0D7FA002007B058
:103F0C00F0BD0027B2F5800F01AE019777603BD171
:103F1C00B3F1007F14BF052304238DF80430002374
:103F2C00CDE904630393836823FA01F111F00101D5
:103F3C001CD1B2F1A07F19D104F01F035F2C4FEA02
:103F4C00541003F120033AD81E4A52F8202052F89C
:103F5C002330DB070AD40DF10306324621462846EE
:103F6C0001F0FEFE184B984219D0029621462846C5
:103F7C0003AA01F05DFD154B98421DD1012221468B
:103F8C00284601F06FFFB9E7B3F1C06F05D0B3F16C
:103F9C00007F14BF01230223BFE70323BDE7314693
:103FAC00284601F053FF094B9842DED06FF00B000E
:103FBC00A5E76FF08500A2E76FF015009FE751F8B9
:103FCC002330FFDEECA900000400AD0B0000AD0BAC
:103FDC00012BF0B500F2EA80847C022C40F0E880E2
:103FEC00537E9E0701D07348F0BD3C2BFBD890F854
:103FFC0034509B0863F3850580F83450137E5D07BD
:10400C00F1D1102BEFD8082B05D0102B00F0C1806C
:10401C00043B5C425C4190F8353064F3010380F85A
:10402C003530947E64F3C70380F835305469D0E999
:10403C000E35E400002D00F0AE80B4FBF5F403FB6C
:10404C0004436E1E3344B3FBF5F39BB2157E1F3550
:10405C006D1145640E6874670C68C4F8AC300B685D
:10406C005469C3F864410B689D67D67E90F8313073
:10407C0006F0030666F3830380F8313090F8315074
:10408C0090F8307005F0010C07F0C00343EA0C23E4
:10409C0007F01F073B43C5F3400743EA472343EAB6
:1040AC008623C5F3001643EA0633C5F3401643EAEC
:1040BC004633C5F3801543EA853390F832500C68CB
:1040CC0005F00F0643EA0643AD0943EA855390F821
:1040DC00335005F0010643EA0663C5F3400643EA94
:1040EC004663C5F3800643EA8663ED0943EAC5736C
:1040FC00C4F8A83090F8346090F8355006F03C03C2
:10410C0005F0030790F8370043EA072306F003068F
:10411C003343ED080C68C0F3801043EAC52343EA2F
:10412C008073C4F89C310B681068C3F80801906860
:10413C000B68C3F80C010868D2E90234DB0F43EAC0
:10414C004403C0F810310B681069C3F814010B68F4
:10415C005069C3F8180118480B680468C3F8584133
:10416C000124164B9C640B680468D3F85C31A342A1
:10417C0018D1013309790360114B12481973D17EA0
:10418C0011F0FD0F197001BF1169526959609A60E5
:10419C002AE703243FE7C56C2B440133B4FBF3F44B
:1041AC00A3B253E700BF00BF00BFDCE706481BE724
:1041BC00064819E70400AD0B3000002000C0045085
:1041CC005C0B00200000AD0B0300AD0B0500AD0B2C
:1041DC005F2830B500F01F044FEA501510D80B487B
:1041EC0050F8250000EB8404D4F88050084828408F
:1041FC0040EA8300014341EA4202C4F8802030BD0A
:10420C000023203453F82430FFDE00BF40AA000006
:10421C00F0F0FCFF5F2810B500F01F034FEA5014BC
:10422C000DD8094A52F8242002EB8302D2F88030D0
:10423C0023F0E04343EA0171C2F8801010BD002264
:10424C00203352F82330FFDE40AA000050232DE922
:10425C00F047054606790720DFF878810C4603FB0A
:10426C00068393F83020002160F3040283F8302099
:10427C000822DA634FF0FF32C3E91211C3E90622B8
:10428C00C3E90822C3E90A22D97419641975986321
:10429C005964514B4FF4D47228681F6805F014FC14
:1042AC0001222B685A6597F90330002B2CDBBA8955
:1042BC0039461201386905F0FAFB3A69474BC3F8E5
:1042CC0008280122454BC3F800280322C3F84024D8
:1042DC000022C3F840242A68536D002BFCD15022D5
:1042EC0002FB0682207E517D60F300015175607ED9
:1042FC00C9B260F341015175237E23BB2068411C78
:10430C0006D13748BDE8F087344BC3F80878D8E7B6
:10431C00906101221146FFF75BFF06EB860704F163
:10432C00040908EB071704F1140A59F8040F431C8D
:10433C0005D0032300220121F861FFF749FFD14585
:10434C0007F10407F1D1637EE3B9502707FB06831D
:10435C009B690133D5D0A146012159F8080BFFF711
:10436C0059FF07FB06871834183757F8043F0133F9
:10437C0004D00121D9F80000FFF74CFF09F1040922
:10438C004C45F2D1502404FB06842B6894F8382059
:10439C004C20DA66E36C2A68C3F12003C2F8603162
:1043AC002B6894F83C201A67A36C2A6843EA4303F1
:1043BC00D367FEF78FFA2A680A48536C43F40073EC
:1043CC0053642A68536C43F4805353640123A374DD
:1043DC0098E700BF6C0B00203400002000C0045094
:1043EC000400AD0B0000AD0BF8B507460679502064
:1043FC007043484D0C46291891F812C0BCF1000FBF
:10440C0000F08480C1E902233B682B503B79424881
:10441C000B714FF40073C1E90C0363682BB14FF4BB
:10442C007A7253433D4AB2FBF3F33A685B009BB29A
:10443C00C2F8BC30502202FB0652537D13F001032C
:10444C0007D12068411C5FD0D06201221146FFF7D2
:10445C00BFFE502303FB06535A7D920706D4DB6A3A
:10446C00013351D001212068FFF7D4FE237A002BB1
:10447C004ED1502202FB0652136B23F0004323F063
:10448C00C00343F000431363637A012B02BF3B6804
:10449C00A27AC3F89821237B43B9502303FB06531C
:1044AC0093F8312022F0030283F83120637B93B917
:1044BC001A46502101FB065101F1300091F83210DF
:1044CC0063F387110379817062F30103037114485C
:1044DC00F8BD0123ECE7023B042B15D801A252F8DE
:1044EC0023F000BF05450000DF4400001545000027
:1044FC000B4500000F45000001230022D9E70223E1
:10450C00FBE702230122D4E70648E1E70648DFE790
:10451C000648DDE76C0B0020070407800020A1078C
:10452C000000AD0B0400AD0B0500AD0B0300AD0B93
:10453C0030B54A780B789A423DD1CA784B799A4279
:10454C0039D18A791AB10B791344202B33D15025E8
:10455C0004791A4B05FB0433DA648A780C78520020
:10456C0004F0010402F0020222439A640A79013A2F
:10457C0002F01F029A634A79DA638D780A7804682C
:10458C0042EA4502E2670A790468013AD2B2E2666D
:10459C008A790468C2F12002C4F860210268487963
:1045AC0010670A7993F83010013A62F30401044859
:1045BC0083F8301030BD0348FCE700BF6C0B0020C3
:1045CC000000AD0B0400AD0B502270B5124B0479FA
:1045DC0002FB0432927C012A1BD101684A650F4907
:1045EC0005680E68C5F858610D4DEA640268D2F88A
:1045FC005C510A68AA4208D101320A60502202FBBF
:10460C000433022207489A7470BD00BF00BF00BF7C
:10461C00ECE70548F8E700BF6C0B002030000020E9
:10462C0000C004500000AD0B0500AD0B012BF8B51C
:10463C00044631D050230679194D03FB0653DB7C1D
:10464C0063BB06EB8600134605EB00100A462146B9
:10465C00FFF7BEFC134B984219D101232268C2F814
:10466C00B030114A21681768C1F858710F49CB64F2
:10467C002368D3F85C1113688B4209D101331360A2
:10468C00502303FB06550123084AEB741364F8BD51
:10469C0000BF00BF00BFEBE70548F8E70548F6E7A9
:1046AC006C0B00200000AD0B3000002000C004504B
:1046BC000300AD0B0B00AD0B2DE9F0415B4BD3F8B8
:1046CC005021002A00F0958000215022C3F850118F
:1046DC00574B584C1B7BDDB25343E218E358D86A56
:1046EC0000283FD0D962DB6AD37C03F0FF00002B9B
:1046FC0000F08180D17450274FF000086F4305EB18
:10470C0085000001E61900F11001D6E902322144BE
:10471C00A6F8108020449847474BE2591968C2F814
:10472C00B080C2F858110121404AD16431681A682E
:10473C00D1F85C01824264D1307D01321A6088B1BB
:10474C000120C1F8B000C1F85821502101FB0541EE
:10475C00364AD0640A68D2F85C011A68824254D195
:10476C0001321A6050226A43A318A258916B002997
:10477C003FD000219163926BDA7C02F0FF00002A9B
:10478C0047D0D97450274FF480736F4305EB8500E5
:10479C000001E61900F1100133822144D6E90232FE
:1047AC00204498470023E259C2F8B030224B1968D4
:1047BC00C2F8581101211D4AD16431681A68D1F828
:1047CC005C0182422AD1307D01321A6088B101200D
:1047DC00C1F8B000C1F85821144AD064502202FB31
:1047EC0005442268D2F85C111A688A421AD1013247
:1047FC001A60BDE8F081137D002B3FF47CAF10757F
:10480C0079E700BF00BF00BF90E700BF00BF00BF4B
:10481C00A0E71A7D002AB5D01875B3E700BF00BF1A
:10482C0000BFCAE700BF00BF00BFDAE700C00450FA
:10483C005C0B00206C0B0020300000204FF000635C
:10484C002DE9F04784B000AF0025BB604FF4026344
:10485C0006460469D0F80480BB81BD730122294649
:10486C0004F12C0004F072FE012204F13C0011460C
:10487C0004F06CFE01224FF00109114604F14C00CA
:10488C0004F064FE4C4B4D4AE3604D4B4946C3F873
:10489C000098D2F830354C2043F01003C2F8303574
:1048AC002A46FEF747F840464649FFF7CFFC464BF1
:1048BC00044698420CD00346444A4946444804F006
:1048CC00B9F96FF0040420461037BD46BDE8F087F7
:1048DC00404607F10801FFF72BFEA042034601D02A
:1048EC003C4AEAE7D8F80C5098F81020D8F80C306D
:1048FC0003EBC2039D4219D37568D6F81080AE68DD
:10490C00002130463A1D04F055FC041E07DB7B6881
:10491C0032681979186800F025FA041E44DA01216E
:10492C0023462D4A2A4804F085F9CCE7286804F080
:10493C00C3FD0346B0B92A686C4688B011686A4654
:10494C002648C2E905014FF400719183244942F8CD
:10495C00101F4FF4E2511E48FDF760F9A5466FF0A9
:10496C001204B0E728682979EB88D0F810C0DA0770
:10497C00DCF8004054BF43F4B01383F4D01323F499
:10498C00801209FA01FEDB07D0F808A04CBF4EEAF2
:10499C00040424EA0E04CCF80040DAF800309847FE
:1049AC00041E90DB08359FE700242846FFF70CFE19
:1049BC0088F85C4087E700BF00010100000004504C
:1049CC00000012504CAA00000000AD0B1CF80000B7
:1049DC00D4A600003BF8000083F8000066F8000045
:1049EC00030000012DE9F843D0F810801D46D8F8DB
:1049FC00003081468B420E46144600AF16D041F66D
:104A0C006A02002308F14C0001F050FF002809DA7B
:104A1C005049514804F0ABFB6FF00F042046BD46E3
:104A2C00BDE8F883C8F80060002CF7D008F13C060C
:104A3C004FF0FF324FF0FF33304601F037FFA10645
:104A4C00D9F8102012D5EB7A012B0FD043494248EC
:104A5C0004F08DFB304601F0F5FE6FF08504404606
:104A6C00002340F84C3B01F0EDFED7E7630603D57D
:104A7C002B7B0BB13A49EAE7600403D52B6A0BB1E7
:104A8C003849E4E7210402D56B6A002BF8D163079F
:104A9C000CD52B7A013B082B06D8DFE803F0323417
:104AAC0036383A3C3E40420000235374E00608D5A9
:104ABC00AB7A022B04D0032B02D0012B18BF00239E
:104ACC001374A10734D56B682749581E88422AD322
:104ADC006C468AB06A462548C2E905030123C2E93F
:104AEC000731052342F8103F00234FF421511A4897
:104AFC00FDF794F8A546304601F0A4FE6FF01504BE
:104B0C00ADE70123D1E70223CFE70323CDE704234D
:104B1C00CBE70523C9E70623C7E70723C5E7082327
:104B2C00C3E70923C1E74FF47A71B3FBF1F3936048
:104B3C00220703D56B7A0BB10D4988E7230603D501
:104B4C006B7B0BB10B4982E7304601F07BFE0024F6
:104B5C0064E700BFA8F80000D4A60000CEF800005F
:104B6C00F7F8000018F900000020A10738F9000040
:104B7C0060F9000084F900002DE9F04F0569064644
:104B8C002B6814468B428DB009D06549654804F0FA
:104B9C00EEFA6FF0150B58460DB0BDE8F08F137898
:104BAC0033B161495F4804F0E2FA6FF0850BF2E72C
:104BBC0005F13C094FF0FF324FF0FF33484601F04E
:104BCC0075FE95F85C50002D40F0A78047F6122C2E
:104BDC0040F2E7302946D4F824E04FF47A720023EF
:104BEC00EEFB0C01FBF744FC3769CDE902013B46B7
:104BFC00391D4E4A7068FFF7F7FB4D4B074698423C
:104C0C0000F0888003464B4A0121464804F012F814
:104C1C006FF0040B484601F015FEBCE70AFB05FBE0
:104C2C00E3691C2203EB0B08002105A8019304F097
:104C3C004BFFD8F804200492D8F8082006920022E2
:104C4C000792A279D8F80C10D2008DF82820E279BE
:104C5C000991D2008DF8292031B3019B13F80B3048
:104C6C00012B15BF02238DF82B308DF82B30638868
:104C7C0018BFA3888DF82A30D8F810300893D6F8CE
:104C8C0010807368D8F8000001930368B3B1012158
:104C9C0004F056FAB0F1000B10DA5B46264A0121FB
:104CAC00204803F0C7FFB5E7E388002BE7D10135B7
:104CBC00236A9D42B2D34FF0000BABE700230122D5
:104CCC00019804A9FFF7B2FCB842034601D01B4A75
:104CDC009AE7DDE9022308F12C0001F0E7FD00283A
:104CEC00D8F80000036803DA5BB96FF0730B91E737
:104CFC00002BDCD0002104F023FAB0F1000BD6DA43
:104D0C0005E0002104F01CFAB0F1000BEDDA0C4ABE
:104D1C005B46C4E74FF0140ACAE76FF00D0B79E756
:104D2C009FF90000D4A60000CCF90000839100008C
:104D3C000000AD0BF5F9000017FA000037FA00007F
:104D4C0056FA0000036803F01F025F2B02604FEA63
:104D5C0053129ABF024B53F822000020704700BF39
:104D6C00ACAA00002DE9F04F1546064640F2FF199B
:104D7C00DFF868A1DFF868B185B000EB8101B142C2
:104D8C0003D1002005B0BDE8F08F3268C2F3C32315
:104D9C00082BC2F3080400F29D804C4508BF4FF06D
:104DAC00FF34B2F1D05F1AF803804FEA126310D2CD
:104DBC00192B11D8DFE803F01319435B464C5B1039
:104DCC0010101010101010101010101010105E7227
:104DDC007578393B0D2B6AD96FF08500D2E7C5F891
:104DEC000446631C4FD10436C9E7C5F80C46621C57
:104DFC00F9D000273A463368039403F400400028A6
:104E0C0018BF002203A818BF012701930092FFF7D7
:104E1C0099FF039C019B00EB8400D0F88040C3F306
:104E2C00412C009A4FEA082343EA8C03134304EA0B
:104E3C000B04234343EA4703C0F88030D3E7C5F89B
:104E4C001046CEE7671CC5F80046CCD0002704E01E
:104E5C00601CC5F80446C6D0012703A80394FFF7CD
:104E6C0071FF0122039B02FA03F38360C3E7C5F8C9
:104E7C000846BCE7C5F86045621C3368B3D0C3F381
:104E8C000043002BE8D0012703A80394FFF75AFF37
:104E9C00039B07FA03F343600122ACE7C5F86445B2
:104EAC00EAE7C5F86845E7E7C5F86C45E4E703A809
:104EBC000394FFF747FF039B00EB8300D0F880308F
:104ECC0023F0E04343F08053C0F88030631C8AD059
:104EDC000027E1E76FF0150054E700BF8EFA0000E1
:104EEC00F0F0FCFF0122014B1A60704700700D506E
:104EFC000C2903690BD15B6A064907484B4393FBAA
:104F0C00F0F100FB113311600020536070476FF01B
:104F1C008500704790D0030040420F000022044BE4
:104F2C000069C3F80021D3F8003101F08BBC00BF3D
:104F3C0000700D507FB50569AB6A63B33F2901D092
:104F4C000C292BD105F110064FF0FF324FF0FF3337
:104F5C00304601F0AFFB134B002401930323694649
:104F6C00A86A0394029303F02CFD4FF0FF324FF02C
:104F7C00FF33284601F09AFCA86A03F079FD0A4B2E
:104F8C00D3F808256A6201225A60304601F00AFC07
:104F9C00204604B070BD6FF00A00FAE76FF0850090
:104FAC00F7E700BFF14E000000700D5010B504691A
:104FBC000020FEF719F9A0624FF0FF3200212046C5
:104FCC0004F0C4FA04F1100004F0B9FA0022012133
:104FDC00D720FDF7AFFCD720FDF77CFC0122024B5C
:104FEC000020C3F8042310BD00700D502DE9F041D2
:104FFC0004460D46476804F0EAFAA0B9274B1B7823
:10500C008BB14FF02008642663681B68D3F83031ED
:10501C008BBB012004F080F9013EF5D1002120204A
:10502C0004F077FBEFE72021EFF311831A4681F3AD
:10503C001288BFF36F8F60680068D0F8300120B918
:10504C0083F31188BFF36F8FEEE77B6A00201D702E
:10505C006368796A1B68C3F83C170121C3F84017D1
:10506C00C3F83001D3F83001196582F31188BFF30E
:10507C006F8FBDE8F081EFF311831A4688F3128825
:10508C00BFF36F8F61680968D1F830110029DCD14A
:10509C0083F31188BFF36F8FC0E700BF9D12002010
:1050AC0073B514461D46684600F0A4FF009BA3424E
:1050BC00019BAB4114D30B4AD2E90061A41B24F031
:1050CC001F0365EB010064099B1941EB000144EAE5
:1050DC00C060C2E9003102B0BDE8704002F010BA05
:1050EC0002B070BD6007002010B500220121E42041
:1050FC00FDF720FC134A0020D2F8183723F4403374
:10510C0043F40033C2F8183700F0A6FF0E4B0446E8
:10511C00984208D101200D4901F02CF8A04205D08D
:10512C000B4B98420AD04FF0FF3010BD6722094B51
:10513C0002201A60FEF760F80020F6E76FF00B0013
:10514C00F3E700BF00200E500000AD0B4000002024
:10515C000200AD0B500C002007B5684600F04AFF6A
:10516C000098074AD2E90032C01A019B4FEA50104E
:10517C0063EB020340EAC36003B05DF804FB00BFBD
:10518C00600700207FB5431C18BF20EAE07502A819
:10519C0008BF6FF0004500F02DFF02990E4B202048
:1051AC00D3E900268C1A039961EB06032146C5FB53
:1051BC000013402973F1000436BF014621F01F0192
:1051CC00002352184FF0010146EB030300910348F2
:1051DC0001F034F804B070BD6007002038000020E6
:1051EC00064BD3F840231C2A05D1D3F84403431EA5
:1051FC005842584170470020704700BF00C0FF0064
:10520C0003689A070CD50368DB070DD50922074BF9
:10521C00C3F80C250F22C3F8042501221A60FEE7FF
:10522C00034B0360EF3B0360704700BF00801050DE
:10523C00F000FA50012208B5334B3448C3F800286B
:10524C00FFF7DEFF0830FFF7DBFF0830FFF7D8FF72
:10525C000830FFF7D5FF00F5F470FFF7D1FF2C4AAB
:10526C00D2F88C3043F44063C2F88C300022D30067
:10527C0003F57F0303F54043D3F8001401310AD042
:10528C00D3F8001439B1D3F800140132D3F8043434
:10529C00402A0B60EBD11C4BD3F840247AB3FFF7B8
:1052AC009FFF48B11B4BD3F834231B4B9A429EBF34
:1052BC00154B1A4AC3F84026FFF792FF18B1184B4A
:1052CC00184AC3F8AC27FFF78BFF48B134220E4BBA
:1052DC00C3F82426D3F83C2622F40022C3F83C263B
:1052EC000323114A0A49C2F81835D1F88C3043F41B
:1052FC004063C1F88C300023C2F8A03508BDC82229
:10530C00C3F84024CBE700BF0000125000C50D507D
:10531C0000ED00E000C0FF00001D0A1840E0A91ECF
:10532C0000A0085078000A0400B0045030B504689E
:10533C00ACB1B4FA84F30122C3F11F03DBB29A407F
:10534C0024EA0202D0E8EF5FA54204D1C0E8EC2FBA
:10535C00BCF1000FF6D1EAD102480B7030BD024807
:10536C00FCE700BF0000AD0B0200AD0B10B50368ED
:10537C00CB40DB0710D401238B40026843EA0201C7
:10538C00D0E8EF4F944204D1C0E8EC1FBCF1000F01
:10539C00F6D1F2D1014810BD0148FCE70000AD0B7D
:1053AC000400AD0BF7B5064648B3012825D10422FD
:1053BC004FF4807371202F490024C1F80803012099
:1053CC0002F1A04203F1A04303F5871302F5871203
:1053DC0010601C601B68284BD3F840331C2B13D077
:1053EC00864201D10DF10704002342F21075214FC2
:1053FC008DF8073066B1012E28D003B0F0BD142211
:10540C004FF484730420D6E7012EEDD1CE60E9E78A
:10541C00D7F84C3403F480333CB9002BEDD0012089
:10542C0003F07AFF013DF3D1E7E7D7F84C2402F003
:10543C0003022270002BE0D09DF80730002BDCD14A
:10544C00012003F069FF013DD4D1D6E7D7F80C3425
:10545C0003F480333CB9002BCFD0012003F05CFF68
:10546C00013DF3D1C9E7002B0CBF012300232370AE
:10547C00E2D1C2E700E0105000C0FF00054B1A79E2
:10548C002AB95A71012218601A71034870470348EF
:10549C00704700BF540C00200000AD0B0C00AD0B8E
:1054AC0008B5084B1B6843B140F20510FDF734FA00
:1054BC0018B940F20510FDF70DFA0022024BC3F8A3
:1054CC00402408BD540C002000E0105010B510B161
:1054DC00012842D010BD314BD3F84C14D3F84C24D6
:1054EC00CC0321D5900702D00020FFF75BFF0022F0
:1054FC002A4B0420C3F8402410224FF4847300215B
:10550C0003F1A04303F5871319601C68012402F111
:10551C00A04202F587121460214A1268002A36D084
:10552C001E4BC3F80403D5E7D3F84824D107DED5C6
:10553C00D3F850249207D7D1194A12681AB1042211
:10554C00C3F80423C6E7D3F80821002AFBD00022B5
:10555C00C3F80821D3F80831BCE700220F4BC3F87D
:10556C001021D3F81011C3F81821D3F81811C3F86F
:10557C001421D3F814210B4AD2F840231C2A04D04E
:10558C0000224FF480737120B9E79860F8E71A682D
:10559C00002AFCD019601B689CE700BF00E010508B
:1055AC00540C002000C0FF00144BD3F80C24D10382
:1055BC0020D5D3F84C24D2031CD5114A517901F0D3
:1055CC00FF00C9B9C3F80C01D3F80C1101215171BA
:1055DC009961126822B10822C3F804230948704764
:1055EC00D3F80C21002AFBD00022C3F80C21D3F8ED
:1055FC000C31F3E7044870470448704700E0105042
:10560C00540C00200000AD0B0500AD0B0B00AD0BD6
:10561C0070B50025184C194ED4F80C2302B970BD86
:10562C00B2FA82F2C2F11F02930003F580739BB2AF
:10563C0003F1A04303F587131D601B6801239340FE
:10564C00DBB2102BD0B2C4F8083309D0402B10D0E9
:10565C00082B00D1757133689847D4F80C23DDE71B
:10566C00B571C4F81451D4F814312023C4F80433A0
:10567C00F1E7B571EFE700BF00E01050540C0020CB
:10568C00036803F01F025F2B02604FEA53129ABFAC
:10569C00024B53F822000020704700BF08AB0000FB
:1056AC00034A4309D35C00F01F001844C0B2704792
:1056BC00C8FA000070B505460846FFF7F1FF362121
:1056CC002A79174B01FB0202083233F81200C1058C
:1056DC0025D56C240026C0F3432120F4F85023F880
:1056EC0012002A7904FB02340E3434F8020F10F441
:1056FC00807F03D0C0F34320814210D00136232E8B
:10570C00F3D16C200024424302EBC1029C502A7955
:10571C00BDE8704000FB02306030FFF727BE70BD63
:10572C0048000020F0B50646002487B0114F0191C7
:10573C0017F8012B06AB03EBD20313F8143C02F061
:10574C000702D34013F0010306D10134032CEFD12F
:10575C000023184607B0F0BD074A03AD07CA85E819
:10576C00070055F824100A6A46F824200A62002A19
:10577C00EBD0EEE7D8FA000010A7000010B50446F5
:10578C000846FFF78DFF362303FB0400024B08305D
:10579C0033F81000400B10BD4800002010B5044633
:1057AC000846FFF77DFF362303FB0400034B08304C
:1057BC0033F81000C0F3400010BD00BF48000020BB
:1057CC0010B504460846FFF76BFF362303FB0400B5
:1057DC00034B083033F81000C0F3401010BD00BF6D
:1057EC00480000202DE9F04F0D46D0F8141387B077
:1057FC00C9B241F40031AA6D009003F008FE810398
:10580C0006462ED50023696E03A8CDE90333059314
:10581C00FFF788FFDFF868A1DFF868B10DF10C091C
:10582C001AF8013B05EBD30292F8642003F007034E
:10583C0022FA03F3DA076AD4534B09F104095345EE
:10584C000BF1010BECD14FF40031AA6D009803F071
:10585C00DEFD696E03A8FFF765FF0028DAD126F498
:10586C0000360124002E73D107B0BDE8F08F91FAF9
:10587C00A1F1B1FA81F19BF8004041EA44142046B1
:10588C00FFF70EFF083035F81080C8084FEA980370
:10589C000193012319F8002001F0070103FA01F12B
:1058AC0022EA010209F8002002A80294FFF7E8FEA0
:1058BC00029A019B203250F82220C8F382075B0722
:1058CC00B846C2F3014227D52846D7B221464246F4
:1058DC0003F07EFD02A80294FFF7D2FE029B203358
:1058EC0050F82330C3F301439F4207D100212046D7
:1058FC0003F05FFD3946204603F05BFD02A80294DD
:10590C00FFF7BEFE0122029B02FA03F30362D9F8F1
:10591C0000100029ABD18FE7022A0DD103212046BC
:10592C0003F047FD07F00503012BE7D14246214662
:10593C00284603F04DFDE1E702212046019203F0D9
:10594C0038FD032FF2D0019A032AD7D1022FECE7AE
:10595C0096FAA6F3B3FA83F304FA03F226EA0206E4
:10596C00009A284602EB8303D3F81015D3F81025C0
:10597C00C1F30811C2F3014203F02AFD72E700BF24
:10598C00D8FA0000D8FA0000DBFA00002DE9F74342
:10599C0005460846FFF784FE36222B79204F02FB82
:1059AC000303083337F813300E46DB07044635D5AE
:1059BC00284603F053FD95F8049031464846FFF70E
:1059CC00FFFE60B14846FFF7D9FE0022D5F80080F3
:1059DC0000B208EB8003C3F81025C3F81025284645
:1059EC003146FFF767FE36222B7901A802FB0344F0
:1059FC000023083427F814300196FFF741FE019B71
:105A0C0000EB8300D0F88020064B134043F00203D8
:105A1C00C0F88030044803B0BDE8F0830348FAE7CF
:105A2C0048000020F0F0FCFF0000AD0B0400AD0BB3
:105A3C002DE9FF47174604460846FFF731FE3E683E
:105A4C008846054676B394F804904846FFF7A6FEC0
:105A5C0018B14846FFF7B4FEA0BB00234046CDE981
:105A6C0000338DF80E308DF80F300DF10F023346E8
:105A7C000DF10E0103F054FC36202379644A00FB2F
:105A8C000353083332F8131021F0020122F81310DB
:105A9C00237900FB0353083332F8131041F0010152
:105AAC0022F813107B68002B45D0267941463046EE
:105ABC0093F80090D3F804A0FFF770FE20B1BAF170
:105ACC00000F22D0534839E04FF0360C0CFB065631
:105ADC004F49083631F8163023F4604323F0200385
:105AEC0021F81630BAF1000F0FD0B9F1030FE9D835
:105AFC007B6826685B68187806EB8006B9F1000FA6
:105B0C001FD1C6F81095C6F8109536202379404A57
:105B1C0000FB0353083332F8131021F01C0122F858
:105B2C001310237900FB0353083332F8131041EAA6
:105B3C00890122F81310BB6863BB374804B0BDE879
:105B4C00F087D6F8102522F00302C6F8102522683B
:105B5C0002EB8003D3F8102522F4473222F47C7236
:105B6C00C3F8102541F6F072D3F8106502EA08125A
:105B7C0042EA09423243C3F8102523790CFB035344
:105B8C00083331F8132042EA403242F0200221F867
:105B9C001320BAE74146D3E900972046FFF78AFD68
:105BAC00B9F1000FC9D06C232079194E4343F21878
:105BBC00F358994504D153689F4201D100210CE060
:105BCC006C2303FB00600DF10F016030FFF7AEFB9F
:105BDC00114B9842B2D19DF80F106C22237953438C
:105BEC0003EBC10346F8039023795343362203EBAE
:105BFC00C10333445F60237902FB0353083336F847
:105C0C00132042EA412242F4807226F8132094E7D2
:105C1C00480000200400AD0B0000AD0B2DE9FF4740
:105C2C000546084617461E46FFF73AFD89460446C8
:105C3C0087B395F804804046FFF7B0FD18B940468D
:105C4C00FFF7BEFD68BB362303FB0848DFF8E4A072
:105C5C0008F108083AF8183013F01C0F02D07B78C2
:105C6C00012B1ED001238DF80F3000237A1CCDE9B7
:105C7C0000734846BB1C0DF10F0103F051FB36229B
:105C8C002B7902FB034308333AF8132042F003024A
:105C9C002AF81320002E4BD049462879FFF77EFDB9
:105CAC0018B9254804B0BDE8F08700214FF0360C38
:105CBC0030782B68820003EB8003C3F81015C3F80F
:105CCC0010152B791B490CFB0343083331F8137067
:105CDC0027F4604727F0200721F8137077783FB33B
:105CEC002B68B6781A44D2F810E5144B3F040EEA30
:105CFC000303C2F8103541F6F07307F4403703EA9A
:105D0C0009133605D2F810E53B4306F480163343ED
:105D1C0043EA0E03C2F810352B790CFB034408340C
:105D2C0031F8143043EA403343F0200321F81430A7
:105D3C000348B7E7480000200400AD0B0FE0ECFF70
:105D4C000000AD0B30B56C250479044B05FB043415
:105D5C00A160017905FB0133DA6030BD48000020F9
:105D6C0070B5067914463046FFF72AFD68B108462F
:105D7C00FFF796FC362303FB0600054B083033F87F
:105D8C00103004485B0B237070BD0348FCE700BF68
:105D9C00480000200000AD0B0400AD0B2DE9F041D4
:105DAC00064607796C20194D00FB075898F8684097
:105DBC004CBB404621464622103003F085FE21465E
:105DCC003068D8F858608E4213D10023C0F84431A3
:105DDC00D0F84431C0F308300130FCF77BFD6C2364
:105DEC0003FB075501230A4885F868302B66BDE88C
:105DFC00F081CBB29B0003F58072442B04BF84501E
:105E0C0083580131DFE70348F1E700BF4800002069
:105E1C000000AD0B0C00AD0B6C210279044B01FBA7
:105E2C00023393F86800003818BF0120704700BF98
:105E3C00480000206C235C22007913FB00230248ED
:105E4C001844FFF793BA00BF480000206C235C2273
:105E5C00007913FB002302481844FFF767BA00BF10
:105E6C00480000202DE9F34103681746D3F81423AA
:105E7C00044692035CBF4FF40032C3F81423067936
:105E8C000D463046FFF79CFC08B33046FFF786FC06
:105E9C008046E0B93046FFF771FC05B22168AD00D1
:105EAC0005F5807241F802808A5821682944D1F89E
:105EBC00102542F00102C1F810252FB101222168F2
:105ECC0002FA00F3C1F8143302B0BDE8F0812846A1
