:020000040000FA
:10000000B0760020252A0100DF0F0200112A01002E
:10001000112A0100112A0100112A0100112A0100F0
:100020000000000000000000000000008D2B010017
:10003000112A010000000000212B0100112A0100FB
:10004000052D0100052D0100052D0100052D0100E4
:10005000052D0100052D0100052D0100052D0100D4
:10006000052D0100052D0100052D0100052D0100C4
:10007000052D0100052D0100052D0100052D0100B4
:10025000052D0100312C0200052D0100052D0100A6
:10026000052D0100052D01007B2C0200052D01004C
:10027000052D0100052D0100052D0100052D0100B2
:10028000052D0100052D0100052D0100052D0100A2
:10029000052D0100052D0100052D0100052D010092
:1002A000052D0100052D0100052D0100052D010082
:1002B000052D0100052D0100052D0100052D010072
:1002C000052D0100052D0100052D0100052D010062
:1002D000052D0100052D0100052D0100052D010052
:1002E000052D0100052D0100052D0100052D010042
:1002F000052D0100052D0100052D0100052D010032
:10030000052D0100052D0100052D0100052D010021
:10031000052D0100052D0100052D0100052D010011
:10032000052D0100052D0100052D0100052D010001
:10033000052D0100052D0100052D0100052D0100F1
:10034000052D0100052D0100052D0100052D0100E1
:10035000052D0100052D0100052D0100052D0100D1
:10036000052D0100052D0100052D0100052D0100C1
:10037000052D0100052D0100052D0100052D0100B1
:10038000052D0100052D0100052D0100052D0100A1
:10039000052D0100052D0100052D0100052D010091
:1003A000052D0100052D0100052D0100052D010081
:1003B000052D0100052D0100052D0100052D010071
:1003C000052D0100052D0100052D0100052D010061
:1003D000052D0100652C0200052D0100052D0100F1
:1003E000052D0100052D0100052D0100052D010041
:1003F000052D0100052D0100052D0100052D010031
:10040000052D0100052D0100052D0100052D010020
:10041000052D0100052D0100052D0100052D010010
:10042000052D0100052D0100052D0100052D010000
:10043000052D0100052D0100052D0100052D0100F0
:10044000052D0100052D0100052D0100052D0100E0
:10045000052D0100052D0100052D0100052D0100D0
:10046000052D0100052D0100052D0100052D0100C0
:10047000052D0100052D0100052D0100064A074B41
:10048000DB7802604FF43472C3710023828008224B
:1004900003728271704700BF13FF0000F80B002049
:1004A000064A074B1B7902604FF4B472C371FF23F5
:1004B0008280082203728271704700BFCDFA00006B
:1004C000F80B00202DE9F341C41D0028064624F056
:1004D00007040CBF0020204600F01CFD071E04DAB4
:1004E0006FF00B0002B0BDE8F0810EB9FC42F7D40A
:1004F000364D6989288903316B7B03302A7B89B2A9
:1005000080B20CF005FB0028EADB3C44A978EB78CC
:10051000002E04F10304194424F0030400FB01F14C
:100520000CBF0020204600F07FFE20440EB90028BA
:10053000D6DB2B790446B3B1697D19446B79194434
:10054000FF29CDDC0330002E2A8AC9B220F0030433
:100550000CBF0020204600F0D7FE0028C0DB04447A
:100560000EB9002CBCDB012000F0CAFCC8B1A97B8D
:10057000B9B195F82C300734002B24F0070415BFCF
:10058000402325234FF481722822002E14BF2046D9
:10059000002002F099FC0028A2DB04440EB9002CD4
:1005A0009EDBAB7CDBB12B7993B10734002EA97CA9
:1005B00024F007040CBF0020204605F099F900281C
:1005C0008EDB04445EB9002C09DA89E7F80B0020C1
:1005D000012000F095FC10B1AB7B002BE5D1724BF4
:1005E0001B6893B1A97981B10334002EEA7C24F011
:1005F00003040CBF0020204698470028FFF670AF88
:10060000044416B9002CFFF66BAF684B1B688BB126
:10061000297D79B10334002E24F003040CBF00209F
:10062000204698470028FFF65BAF044416B9002C1B
:10063000FFF656AF5E4B1F68B7B1697DA1B10334B9
:10064000002E2B7E24F0030408BF0020009318BF67
:100650002046EB7DAA7DB8470028FFF641AF044451
:1006600016B9002CFFF63CAF072000F049FC98B10A
:10067000A97989B10334002EAA7E24F003040CBFAB
:100680000020204600F02EFF0028FFF629AF04448A
:1006900016B9002CFFF624AFB6FA86F795F82500B8
:1006A0007F09A0B10334EB7F297F24F007041944AC
:1006B0003B4644F00404C9B2224600F055FF00282E
:1006C000FFF60EAF044416B9002CFFF609AF95F8FB
:1006D0002610002959D00734002E2A8D24F007084F
:1006E0000CBF002040460CF028FA041EFFF6F8AEBE
:1006F000444416B9002CFFF6F3AE1EB1298D4046D6
:1007000009F03CF895F82010002940D095F82430E5
:10071000002B3CD06A8C0734002E24F0070802F12D
:1007200024020CBF0020404692B20CF006FA041ED0
:10073000FFF6D6AE444416B9002CFFF6D1AE033412
:10074000AB7F297F24F0070495F8240019443B4629
:1007500044F00404C9B2224600F0F8FE0028FFF677
:10076000BFAE044416B9002CFFF6BAAE3EB16A8C97
:10077000404695F82010083292B209F005F82B6B2C
:100780005BB176B12C630020ACE68846B5E7002E5D
:10079000F5D0002211461046EFE7002EF3D1204697
:1007A000A0E62834FBD59BE6A4000020AC00002086
:1007B000A80000201FB572B6194B5D6BE5B9BFF3F9
:1007C0004F8F1849184BCA6802F4E0621343CB609C
:1007D000BFF34F8F00BFFDE7B4FBF6F4D3B2013295
:1007E000002CF9D103F110026A4402F80C4C0A22E1
:1007F00033B901A8A847E2E7044600220A26EDE73C
:10080000013BDBB203F110040DEB0406B0FBF2F484
:1008100002FB1400303006F80C0C2046E8E700BF5D
:10082000F80B002000ED00E00400FA0513B5114CB0
:100830006846637B8DF80130237B8DF80030638937
:10084000ADF804302389ADF8023003F017F918B180
:10085000DB210320FFF7AEFF207E03F03FF908B154
:10086000DE21F6E7E07D03F033F908B1DF21F0E7A0
:1008700002B010BDF80B002070B50546002850D01E
:100880000BF020F818B94FF0FF34204670BD09F086
:10089000C3FBB0F5FA7FF6D8234C032623486563E3
:1008A000002500F0A9FA2A222946A01C84F8385015
:1008B000257084F82C50256310F05FF840F2011386
:1008C00001212A46A67363801B23084621712381D8
:1008D000638140F20323A176A3811F2323824FF477
:1008E0000273638244F60113E382F7236384FB23DC
:1008F000238502F047FB20B140F24F313046FFF72D
:1009000059FF02F05BFB044610B140F25231F5E7AB
:10091000EFF3108572B600F051FE002DB5D162B62E
:10092000B3E76FF01504B0E7F80B00202D080000C6
:1009300038B51446002840F0D080694D95F838301D
:10094000032B00F0C780B9B112B96FF0150038BDA4
:100950000139162900F2C180DFE801F00C1D2035B5
:100960005F68863B6B6E804147555A8C8F9DA0A374
:1009700095A6AA001378AB700020FFF7A3FD00280E
:10098000B7BF012302236FF00B0085F83830A8BFF2
:1009900085F83830DBE71378EB70EDE71379002B3F
:1009A000D3D05379002BD0D01288FB2ACDD81A2A65
:1009B0006388CAD91B3BE02BC7D82368A288AB60E9
:1009C000484B9A80D8E713786A799342BDD32B714C
:1009D000D2E713782A799342B7D86B71CCE71378B2
:1009E0002A799342B1D86B75C6E71378002BACD047
:1009F0005378013BDBB2F82BA7D813889278EB82AF
:100A0000394B9A70B8E71078687607F055FBB3E772
:100A10001378002B99D0AB76AEE7012000F070FA86
:100A2000237808B1012B90D9AB73A5E713882B82EB
:100A3000A2E71378AB719FE7072000F061FA10B9C5
:100A40002378012B81D9072000F05AFA18B12378B6
:100A5000002B3FF47AAF2378EB748DE71378082BE3
:100A60003FF673AF2B7587E71388FF2B3FF66DAF0B
:100A7000AB7481E71378EB767EE713780E2B3FF6A5
:100A800064AF2B7778E72368184A2B62636853605A
:100A90002389138170E713786B776DE71378EB7711
:100AA0006AE71378AB7767E7137885F82A3063E74E
:100AB00092786178207802F065FA00287FF447AFD9
:100AC0006378012B7FF658AF08F050FE00287FF4C2
:100AD00053AF3AE74FF0FF3039E76FF02C0036E7BD
:100AE000F80B0020000C00200E0C0020180C002039
:100AF000F8B50D46064630B329B311F0070422D1EC
:100B0000124F97F83830012B02D16FF00B00F8BD6F
:100B1000032B02D14FF0FF30F9E700F09DF80028D9
:100B2000F8D02846FFF7CEFC0028EEDB0FF0BEFA27
:100B30003046396B03F054F8FFF778FE0323204664
:100B400087F83830E3E76FF01500E0E7F80B002096
:100B500010B5074C94F83830032B03D103F05CF840
:100B600003F08CFF0CF012F9002084F8380010BD5F
:100B7000F80B002050B1074B03F1140253F8041B8B
:100B8000934240F8041BF9D1002070476FF0150024
:100B9000704700BF1DC50200074B10B593F83840E1
:100BA0003CB902F0E7FF0320044900F0A1F9204618
:100BB00010BD4FF0FF30FBE7F80B0020A104000050
:100BC000074B10B593F838403CB902F0E7FF02201C
:100BD000044900F08DF9204610BD4FF0FF30FBE7CF
:100BE000F80B00207D040000054B10B593F8384049
:100BF0001CB902F081FF204610BD4FF0FF30FBE72B
:100C0000F80B0020054B10B593F838401CB90DF0D7
:100C100033FA204610BD4FF0FF30FBE7F80B002001
:100C2000054B10B593F838401CB90DF028FA204652
:100C300010BD4FF0FF30FBE7F80B002002680020EA
:100C4000014B1A60704700BF340C0020014B1B6839
:100C5000184700BF340C0020024B1868003818BF3A
:100C600001207047340C0020F7B504462D4E071DB7
:100C70002C48376003F01AFF0228054606D129499F
:100C800020460BF0CCF8284603B0F0BD042842D132
:100C90003378092B0AD0262B1ED0314620460BF084
:100CA00038F9B0F5817F2DD3722112E005213E2065
:100CB0000BF088F80028F0D1F37801A93279684662
:100CC00043EA0223ADF800300BF0F2FC0028CFD04D
:100CD00053210820FFF76EFD1A213E200BF072F819
:100CE0000028DAD17368694601A8C3F30F23ADF871
:100CF000043011238DF806300BF0EEFC0028B7D03D
:100D00006521E6E70028B3D0A17820780BF05AF8E7
:100D10000028B8D1ACE70828B5D1024920460BF02D
:100D2000B6F8B0E7380C0020074B4FF0FF3141F622
:100D3000FF72C3E9001205490022C1E900221F2108
:100D4000C3E90212704700BF400000203C0D0020A4
:100D50003F280CD801380B4BC0F3421200F01F00A3
:100D600053F8223023FA00F000F001007047FF280A
:100D700006D04038044BC0F3421200F01F00EFE7EA
:100D800001207047400000203C0D0020074B014629
:100D9000006849681A4603C240F48C221A6041F088
:100DA000107242F4FF625A60704700BF400000209A
:100DB0000246024B0068516803C370473C0D002097
:100DC0000246024B0068516803C370474800002088
:100DD000FD28084B16BF00F1FF303F20C0B242098A
:100DE00000F01F0003EB82039B6823FA00F000F081
:100DF0000100704740000020014B1860704700BFA1
:100E0000440D002010B5FFF78FFF0CF07EFC034B64
:100E100004461B6803B19847204610BD440D0020CE
:100E200070B50C88C27CA6B2C4F30E04931C05886E
:100E300004F118021D44825AADB21A4443882A4470
:100E4000013AB2FBF5F202FB054292B29342044B27
:100E50008BBF3340B34313439BB20B8070BD00BFC5
:100E60000080FFFF4A1E062A08B50346084604D83C
:100E70004FF4D1711520FFF79DFC094A914202D928
:100E800040F2A311F6E711B903B1196008BD2BB107
:100E90001B680022C3E901211A1D1A600430F5E71E
:100EA000FAFFFF7F10B5114B00EB41041A786389FC
:100EB000B3FBF2F303FB0223013A1A44B2F5706F5D
:100EC000027928BF00231A448378B2FBF3F0194457
:100ED00003FB1020091AB1FBF3F003FB10131344BA
:100EE0006FEA43436FEA5343638110BD480D00200E
:100EF000024B03EB80035960704700BF480D002090
:100F0000034B03EB80035868003818BF012070477B
:100F1000480D00202DE9F04F10F0070A85B0054676
:100F200004D040F261111720FFF744FC544F0446EF
:100F30004FF0010B07F14806B146B04657F8043BA5
:100F40008DF80BA03BB101A898479DF80A30082BFB
:100F500001D9E821E7E79DF80B1081BB05B13160AD
:100F6000B94506F10406E9D12DB30023DFF814E1F9
:100F700011221E468EF8003058F82200013A60B166
:100F800090F804A08178BAF1FF0F64D14FF0000708
:100F90008E4207713CBFCEB20123511CECD10BB184
:100FA0008EF80060112640F6FF6A58F82670002F70
:100FB00063D1013EF9D2601B05B0BDE8F08F9DF80A
:100FC0000AC04A1DBCF1020FE64604EB420438BFDA
:100FD0004FF0020E53000EF1FF300444CEF100003A
:100FE0002040BDF808406444CCF1000C013C04EA08
:100FF0000C04B4F5803F01D3F82194E775B1C31A0E
:10100000336099701C8083F803B09DF80C201A712E
:10101000019A4FEA124C1A81A3F806C004FB01049E
:101020009EE758F82C90B9F1000F06D099F804B05B
:10103000D34504BF99F802904F440CF1FF3CBCF13A
:10104000000FEEDA3944FF29A2D90BB18EF8006007
:1010500040F2271167E794460027F0E707EB4103CA
:1010600009F101093846A3F80AA0FFF71BFF5FFA50
:1010700089F1BB788B42F1D89BE74FF00009F6E786
:101080004C0D0020480D0020F8B54FF6FF730546C3
:101090000380184B03EB8103D86CB8B186780379D1
:1010A000B3FBF6F206FB1233DBB219460A1D00EB66
:1010B0004202B2F902705488002F09DB0131B1FB02
:1010C000F6F206FB1211C9B28B42EFD10020F8BD37
:1010D000FF29FBD0C4F30E03C4782B8024B94FF44E
:1010E000D5711720FFF766FB5380BDE8F8400BF081
:1010F000EEBC00BF480D00201D4B03EB810370B513
:10110000DC6C054644B3030404D54FF4DC711720AE
:10111000FFF750FB014620460BF0BCFCFF280146C0
:1011200004D02046BDE870400BF0D1BCA078B5FBE0
:10113000F0F300FB1353DBB219460A1D04EB420621
:10114000B6F90260002E09DB0131B1FBF0F200FBC1
:101150001211C9B28B42F0D1002070BDFF29FBD023
:101160008B4204EB42021CBF0023E3705580D8E79A
:10117000480D0020094B03EB8103014610B5DC6CE0
:1011800020460BF087FCFF28014604D02046BDE82E
:1011900010400BF09CBC002010BD00BF480D00208B
:1011A000F8B5104B074603EB81030146DC6C204683
:1011B0000BF070FCFF28054611D0E688238953EA1E
:1011C000064606D0014620460BF081FC0146384613
:1011D000B04720462946FFF765FE0020F8BD0520F0
:1011E000FCE700BF480D002038B50E4B044682795D
:1011F00003EB8203D86C08B9052038BD8278E17909
:101200009142F9D24B1CE37100EB41035D89B3F9C4
:101210000A30002BF3DBA5800BF059FC2060002086
:10122000EBE700BF480D002070B5044610F0030046
:101230000E4603D04F211820FFF7BCFAFFF712FE2D
:10124000054624B1034831460460FFF70BFE2846EB
:1012500070BD00BFDC0D00202DE9F14FDFF870B04C
:101260001E4607460D46DBF8003090469DF828A044
:101270009DF82C901BB961211820FFF79BFA52466C
:10128000092140460BF077FA4A4684B209213046DC
:101290000BF071FA81B2DBF8000021440BF0CFFBB8
:1012A000386018B9286001B0BDE8F08F0444534697
:1012B000414609222C6038680BF016FA4B46092289
:1012C0003146286801B0BDE8F04F0BF00DBA00BF01
:1012D000DC0D002070B50E4604460BF05FFA0546A3
:1012E00030460BF05BFA044B2A1821461868BDE81B
:1012F00070400BF0C8BB00BFDC0D0020014B18682C
:101300000BF091BBDC0D00201F2AF8B504461346F4
:101310000ED89200033222F00303B3F5803F2DD2A2
:10132000184DACB1A00710D05F210920FFF742FA99
:10133000FF2B4FEA420204D9FF339A42A8BF1A4654
:10134000E8E77C2AB8BF7C22E4E729706C602B8137
:1013500022F0030228230127120403FB01F06B682B
:101360000025120CEEB28E4200D3F8BD14B126183F
:101370001F705E60104401352833F3E74FF0FF30F3
:10138000F3E700BFE00D0020144A002138B5536890
:101390001478C8B2844203D8AB210920FFF70AFAB7
:1013A0001846013128330578002DF2D000218170D4
:1013B000012412898161051D44709208C16100F108
:1013C0002001446821F8022B994245F8044B14444B
:1013D000F8D100234361037038BD00BFE00D002049
:1013E0000A4B1B89B3F5FF7F4FEA930006D25A08D8
:1013F0009B1A9BB2984238BF18467047B3F5EE6F00
:1014000001D8FF22F4E740F27263F3E7E00D002019
:101410002DE9F8434B7880460C4602F0040602F0B2
:10142000FB07D3B1DFB12E4BD4F804901D89B7BBB5
:101430000123AD084A46211D637004F1280004F120
:101440002003A761E76123F8025B984241F8042B6F
:101450002A44F8D10023636101E0002FE3D0FF2389
:10146000A370002E18BF0226A3191B7D032B03D1E6
:10147000022F1CBF0136F6B2A31901221A7506F11C
:101480000C02002304EB860624F812307268A37065
:101490004046C8F80020A8F80430BDE8F8830021D1
:1014A00014226170A0180FF068FAB5F5FF7F0FD213
:1014B0006B08ED1AADB209EB0502C4F8049025845F
:1014C000A2606384C4F80C90A5842261E384C6E71B
:1014D000B5F5EE6F4FF0FF03EBD940F27265EAE726
:1014E000E00D00202DE9F84305460C46F7200521C4
:1014F00091460BF040F9061E22DB1DB906FB04F0F5
:10150000BDE8F88315F0030703D098211920FFF7F1
:1015100051F9DFF83480C8F81050A5B2A8F814606B
:10152000BBB29D42EAD9B8F814C04B46D8F81000B7
:101530000522F72107FB0C0001370BF0D5F8EFE788
:101540004FF0FF30DCE700BFF40D002007B5CDE918
:1015500000230B4603490246081D0BF0F1FB03B0C4
:101560005DF804FB0C0E002013B5064CCDE90023FA
:101570000B46024604F1080104F10C000BF0E0FBFD
:1015800002B010BD0C0E002008B54B1E032B03D972
:1015900023219020FFF70EF9002801F1010114BF6B
:1015A0000C230523C9B203EB8101034B013121F068
:1015B0000101197008BD00BF1C0E0020124B012252
:1015C0004FF0FF3000211B685A60C3F80803C3F8CE
:1015D0000015C3F804250D4B1B685A6040F6FE72D7
:1015E000C3F808034020C3F80015094B0949C3F8A4
:1015F0000825C1F88800BFF34F8FBFF36F8FC1F884
:101600008801C3F808257047741D0020701D002054
:101610000020085000E100E00A4606483A2302F89C
:10162000033BC368C1F803300369536043699360A7
:10163000704700BF200E0020024B5A8C02435A8490
:101640005B6A1847200E0020014B00215B6A184797
:10165000200E002010B5154C07F06EFC06F072FF4E
:10166000208DFFF7F1FF237E63B12246104904F17C
:10167000190052F80C3BE36063685360A368936001
:101680000DF051FB0B4B228D93E8030004F0BAF9E7
:10169000236B188804F0E0F8A36B94F8341094F8E6
:1016A00035009847002384F83C3010BD200E002000
:1016B000191600004C0E0020034B93F83C300BB180
:1016C000FFF7C8BF704700BF200E002070B5224C46
:1016D0000646636C256B236495F88C3094F84800BB
:1016E0000BB10430C0B295F86D102EB9FF2803D1AC
:1016F00095F86C308B4201D007F0BAFA95F88C302F
:1017000023B3E06C07F0FAFC94F82C30E16C003B5A
:10171000206C18BF012384F87030D5E93A23C4E95E
:10172000182306F029FE46B995F86D30033B012BCE
:1017300094BF2820002007F027FD95F86C100020AA
:1017400007F082FD022384F83C3070BD206C07F066
:10175000D5FC06F0F7FEE6E7200E00200138C0B207
:10176000032808B504D940F267410620FFF722F8A4
:10177000014B185C08BD00BFCC56020008B5094BF0
:1017800093F83C20022A04D040F22D212720FFF7B5
:1017900011F8DA7A42F00102DA72BDE80840FFF788
:1017A00059BF00BF200E002010B50E4CA26F137859
:1017B00003F00303032B04D1D378022B01D10020C3
:1017C00010BDE06F0BF072F80028F9D1A36F1B7801
:1017D00003F00303032BF2D002F048FC80F0010079
:1017E000C0B2EDE7200E002038B51E4C0546D4F8F7
:1017F0008030984708B9012038BD94F83430002B68
:10180000F9D194F82C301BB9012D03D00020F3E757
:10181000002DFBD194F88430DD06C3F3001001D510
:10182000FFF7C2FF636CD4F888201B78C3F3001362
:101830002AB9B4F88C2013B1B2FA82F35B0994F898
:101840002C10628C39B1910705D5A36FD878023876
:1018500018BF0120D0E7002ACDD10028D6D183F0CF
:101860000100C9E7200E00202DE9F341324C064665
:101870000F4694F83C30256B012B5FFA83F804D0B7
:1018800040F29D412720FEF795FF95F87C3053B13B
:101890000021042085F87C10FFF7CEFE94F82C3050
:1018A0000BB185F87E80A16F0B7803F00303032B47
:1018B00005D195F8823013B90220FFF7BDFEA26F63
:1018C000137803F00303032B02D053782BBB0123BF
:1018D00085F8823095F88C30CBB194F82C30226B9F
:1018E000003B94F84880D5E93A0118BF0123C4E9C8
:1018F000180192F86D0084F87030FFF72FFF002276
:1019000003460E4902200092424606F0CDFC36B155
:1019100002B0BDE8F041FFF79DBE0223D8E7002FDB
:10192000F6D03046FFF760FF0028F1D102B0BDE8E5
:10193000F041FFF7CBBE00BF200E0020700E00204C
:1019400037B5724C0023256B8DF8053095F88C2047
:1019500094F848300AB10433DBB295F86C1028B91A
:10196000FF2B03D195F86D308B4202D0FF2007F09A
:101970007FF995F88230032B00F2B680DFE803F0A0
:10198000023B94A794F88E306148ADF80630A5F874
:101990005C3002F041FB80B1A16F4FF48070FFF723
:1019A0004BFE0121A36F85F87D10DB781B2B1ED128
:1019B00005F1100007F08CF919E00DF105020DF1A9
:1019C0000601E06F0AF012FFA067A0B195F8C730DA
:1019D0008BB99DF805302BB9038001218370A06F6E
:1019E0000DF03CF8BDF80610A06F0DF043F901238F
:1019F00084F88F3001E0474BA36795F88330A16FDF
:101A0000DB0003F008020B7803F0F303134395F8AF
:101A10008420920002F00402134323F010030B70A1
:101A2000FFF7C2FE0028A06F14BF10230023027826
:101A30001343037095F88B30002B58D04378002B5C
:101A400055D0E06C07F05AFB94F82C30A06FB3FA35
:101A500083F35B0984F87030D5E93823C4E918238F
:101A60000DF011F8021EE16C18BF0122A06F07F003
:101A70005BFD18B9A16FE06C06F07EFCA06F0BF067
:101A800097F995F86D10012007F0DEFBA26F012396
:101A9000118884F8E030A4F8841091781E4A84F804
:101AA0003C30917003B030BDB5F85C300DF10502EB
:101AB0000DF10601E06FADF806300AF097FEA06761
:101AC000002894D140F2CD212720FEF773FE104864
:101AD00002F0A2FA10B940F2D721F5E7A36FDB7844
:101AE0001B2B84D1012163E740F2E521ECE707F0ED
:101AF00005FB06F027FDA06F0CF0C5FF011EA06FCF
:101B000018BF01210EF0F9FAB8E700BF200E00203F
:101B1000980E0020B00E0020A40E0020064B10B539
:101B200093F83C2002F0FF0422B91C7603F062FF18
:101B3000204610BD0C24FBE7200E00200A4B0B4A68
:101B400070B506460D461A60FFF7E8FF18B1DE21B2
:101B50002720FEF72FFE064C012104F190000CF027
:101B60007DFF6664E56470BDC0000020B000002009
:101B7000200E0020024B012283F8E120704700BFB5
:101B8000200E00202DE9FF419C4C02AE0A9F86E802
:101B9000030094F83C1001F0FF0511B90AB103B13C
:101BA00027B940F26D112720FEF704FE96E80300E6
:101BB00004F12C0C84F8E15084F8345084F8E2509D
:101BC00084F8355084F8E05084F88F50658425857A
:101BD000C4F880306262A7638CE80300256B07F0CD
:101BE00099F806F0AFFC95F9740007F0F7F8A86AC9
:101BF00007F068FA286A07F0F7F895F89C0007F0F4
:101C000019F995F87630002B00F0AE804D2006F0E3
:101C1000CFFF94F82C00002840F0A88095F86C20A5
:101C2000774B03EB820359684FF47A7301F5FA712D
:101C3000B1FBF3F16E3107F06BF9724B724E05F5A3
:101C40008077186807F044FA6B69E367AB69C4F8FA
:101C5000E43005F1F0031868083353F8041C3246E9
:101C6000BB4203C21646F6D15968D5F80001236B72
:101C7000664A03C293F8862093F86C00A2F126010D
:101C8000012903D993F88710262977D194F82C20BD
:101C9000002A70D193F802120BF07AF8064605F18B
:101CA0003407314638460DF0FAF831460CF016FC90
:101CB000B5F8403095F86D10834228BF034638468A
:101CC00084F88E300DF0B1F895F86D1095F88C60B1
:101CD0000429B5F8488008BF03210CF0FFFB0EB9BA
:101CE000043080B2404528BF40465FFA80F884F84F
:101CF000E88002F0D7FF30B102F0DAFF404538BF8C
:101D000040465FFA80F894F82C6084F84880002EF2
:101D100059D195F88B308BB1012395F86C0084F87C
:101D20007030D5E93823C4E91823FFF717FDFB22EB
:101D3000034635490420009606F0B6FA0120FFF765
:101D4000FFFD002323606360A360B5F880306380EB
:101D50002B88238095F89C3023712B6F0BB10122C7
:101D60001A6004B0BDE8F081962050E795F86D2028
:101D7000C42101205FE793F89A128DE7213A012AE6
:101D80000FD824290FD094F82C20BAB193F826311B
:101D90005A0711D413F001017FF47EAF03F0020162
:101DA0007AE724290AD194F82C203AB193F8262115
:101DB00093F865301340EBE704216DE7032814BF67
:101DC000064604266BE795F88C3093B1012395F80D
:101DD0006D00D5E93A6784F87030C4E91867FFF7F9
:101DE000BDFC00220346084900920220424606F04C
:101DF0005BFA0120FFF76AFCA3E700BF200E00207A
:101E0000CC560200C0000020700E0020880E00207A
:101E100008B5114B93F83C201AB9BDE80840FFF70C
:101E200019BC93F82C2042B993F83C30012B12D006
:101E300040F20B212720FEF7BDFC93F83C20022A3C
:101E400002D040F20F21F5E71B6BD3F8D801BDE8B3
:101E5000084007F06DB908BD200E0020014B187630
:101E6000704700BF200E0020014B93F8E000704740
:101E7000200E0020044B93F88F201AB9188DC0F360
:101E80000030704701207047200E0020024B188D53
:101E9000C0F3C020704700BF200E0020014B93F814
:101EA000E2007047200E00202DE9F34182071E4D0D
:101EB00006460F462C6B22D5D5F8883023B940F260
:101EC0008E412720FEF776FCB5F88C201846296C49
:101ED000033291F8018009F0B1FE0DF1020201A96F
:101EE0002864D5F8E4000AF094FD01980AF07BFD1F
:101EF000012238604146D5F8E4000AF021FDF307DD
:101F00000ED5D4E93A32013342F10002C4E93A3243
:101F100094F88430012B0CBF0023012384F8843013
:101F200002B0BDE8F08100BF200E00202DE9FF4780
:101F3000B44C002380468946276BCDE9023394F8E0
:101F40003C30022B04D040F211512720FEF732FC26
:101F5000238D590606D44020FFF776FB238D43F0EE
:101F60004003238597F88C30B8F1000F00F05081C2
:101F7000A3B106F0F5FA88B9236C5A7872B11B78D0
:101F800097F88420C3F3C0039A4207D1012384F851
:101F90003530FFF75FFB04B0BDE8F087236C59785C
:101FA000A4F88C1009B3D4F8E4000AF0A0FCC4F83B
:101FB0008800238D97F8832043F400732385236CD6
:101FC0001B78C3F380039A4200F0C280256B95F81A
:101FD0008230002B40D0022B11D102A9E06F0AF011
:101FE00027FC28B940F20541AFE7C4F88810E0E7C4
:101FF000D5E93832013342F10002C5E93832002117
:1020000094F82C3085F882103BB195F87E3023B1DE
:10201000102085F87E10FFF70FFB95F87D309BB1FF
:10202000002685F87D6002F009F810B940F21C41E5
:102030008BE731460820FFF7FFFAD5E93832013344
:1020400042F10002C5E9383295F88330012B0CBF0C
:102050000023012385F88330238D4FF0000A43F4D9
:1020600000632385216C97F884200D78C5F3C003A5
:102070009A426FD00025206C0AF09AFE97F88B30B8
:10208000B3B194F82C3097F86C00B3FA83F35B0982
:1020900084F87030D7E93823C4E91823FFF75EFBD2
:1020A00000220346584900920420FB2206F0FCF867
:1020B000B9F1000F00F0CA80012607F0F7F81DB152
:1020C00003A90220FFF7F0FEBAF1000F10D094F838
:1020D0002C3043B1B4F80720B4F805301343B7F8F7
:1020E0008020134304D0B4F809300133A4F8093038
:1020F000B8F1000F00F0C480B4F805300133A4F843
:102100000530002384F8E230404803F093FB029846
:1021100030B10AF068FC216B0022027202F00AFD65
:10212000039B33B1216B00221A720C22039802F038
:10213000CFFC002E7FF42DAF238D1B063FF52BAF78
:102140008020FFF781FA238D43F08003238522E767
:10215000C24687E705F00305266B032D14D0F5B9B9
:1021600096F88430013B18BF012386F88430236C35
:102170005B78002B3FF47FAFD6E93A32013342F16E
:102180000002C6E93A3276E7238D0120002543F4A8
:10219000805386F87C002385FFF74EFAE0E74D7800
:1021A000002DDDD0238D96F88C5043F48053238589
:1021B00006F014FD042894F8E83006D1002D14BF71
:1021C0001B221F22934228BF1346226C52789A4248
:1021D0000BD8D4F88830002B3FF44CAF94F8E130A2
:1021E0006BB12020FFF730FA44E794F83430012037
:1021F00043F0100384F8343008F03CF83AE74546E1
:10220000AEE700BF200E0020700E00204C0E002014
:102210000BB106F0B9F994F8E230013384F8E230FA
:10222000238D43F48063238597F86D30033B012BA6
:1022300005D80025012008F01DF8AA461EE702F087
:1022400031FD82460028F4D1054617E794F82C208A
:1022500094F8E2303AB1628C120704D5A26FD278BA
:10226000022A3FF429AF012B3FF626AF0120FFF7EA
:10227000BBFA064600287FF41FAFFFF761FB1EE79D
:10228000B4F807300133A4F807303DE72DE9F04FEB
:1022900004468BB01E4600230D461746069390F861
:1022A0006D800BF048FF94F8C0310B2B04D940F23D
:1022B000F2310620FEF77EFA794A32F813B094F82C
:1022C00087308344442B1FFA8BFB3CD00E2B94F8B1
:1022D000862038D0443A53425341039387F0010398
:1022E0000493002F57D194F80432032B53D1039B4E
:1022F000002B50D0B4F89832AB424CD1D4F80C3209
:102300002046B4F8DC2141F64B59C4F8F831E369B2
:10231000C4F8FC31B4F852321344C4F8003205F06A
:102320003DFED4F8A03294F8AC224B458CBF4FF060
:1023300000094FF0010942B9E26993421AD020889E
:102340000DF090FE16E00123C7E720880DF087FE10
:1023500018B940F232713020ACE7B4F8A832B9466F
:102360006386B4F8AA328381B4F89832C781438176
:10237000013B0382D4F89C3284F87690E362B4F88F
:102380009A322386D4F8A032E361D4F8A43263628F
:10239000022384F80432B4F850A204F50873B4F8A8
:1023A0008090A5EB0A0A0593A5EB09090FFA8AF3B9
:1023B0000FFA89F9002B17DAD4E98E23C4E99223A6
:1023C0000023012284F81B324B4694F804A2354FB7
:1023D0005FFA8AFABAF1030F00F2C881DFE81AF057
:1023E00006002601640045013246EEE794F86D10C0
:1023F00094F8D6010CF099F88046E06A59464044BA
:1024000007F0C0FD5946C4F80802E06907F0BAFDBC
:1024100094F8763007A9002B18BF4FF0020A5044F9
:10242000C4F80C0208A806F049FF079BD4E9920102
:102430000093DDE908230EF078F9814620460AF082
:10244000DCFCD4F8543294F86D00D4F82CA0069338
:1024500007F062F8069B00F52240D4F80812BB3B57
:10246000B1309A444FF47A73AAEB010A3031B0FBD1
:10247000F3F0D044238EA8EB090803EB4101A8EB4D
:102480000000069094F86D000AF0C3FCD4F85422C2
:10249000069B38609B1ACC2B69D840F2D2415AE790
:1024A000E45602000C0F0020E36A5946D4F8FC0100
:1024B000184407F067FD5946C4F80802E06907F0C0
:1024C00061FD94F87630002B08BF4FF0000A5044AD
:1024D000C4F80C0220460AF090FCB4F8DC31D4F8C1
:1024E0002C80D4F8FCA1002B40F09980002E00F045
:1024F0009680D04494F86D0007F00EF8D4F80832B6
:10250000A8F1BB0800F5224994F86D004FF47A7BDE
:10251000A8EB0308D4F8403209F1B1099844C31E6E
:10252000D4E98E12012BA8EB0108B9FBFBF973D992
:1025300006F0F2FF00F2E730B0FBFBFBA8EB090866
:1025400008EB0B000690D4F80812D4F8F831D4F850
:102550000022303194F86D0002FB0311238E03EB4F
:1025600041010AF056FC0123386084F80432E36923
:102570004FF00008D4F80C2204F13400A3F5A27344
:102580003F6806999B1A84F820829F4228BF1F4605
:10259000D4E99232C4F8D8715B1842F10002C4E960
:1025A0008C320CF040FC0744A4F85052C4F824725A
:1025B000D4E98C23C4E9922304F022FF20B1D4F89B
:1025C00024321E33C4F82432B4F8C81184F82882A7
:1025D0004D1B2DB2002DC4BF022384F82832039B6B
:1025E000002B40F0C680002E40F0C48094F80432E6
:1025F000002B00F0DC80E16904F50870D4F80C329F
:10260000C91A0BF03AFF80B2002800F0D080149B6A
:1026100003B118800120DAE04FF03E0B8EE7D04482
:10262000D4F80832A8EB030306938CE7D4F80C2205
:10263000E169D4F8F801891A4B43D4F800120693E3
:10264000B4F8DC319944CB439944D4F808323033A0
:1026500000FB0133218E94F86D0002FB093301EB7E
:1026600043010AF0D6FB386081E7E06958430690E1
:102670005EB3B4F8DC1141BB84F81B12D4F80C1221
:1026800001FB130A94F88630262BCDF818A003D04E
:1026900094F88730262B09D1B4F89832EB1A1B0432
:1026A00004D494F89B32002B18BF9846002A3AD0E5
:1026B000B4F8DC31BBBBD4E98E23D4E9900182426B
:1026C0008B4108D340F2265145E694F81B120029AD
:1026D0007FF44DAFD2E794F86D00C31E012B40D9B3
:1026E00006F01AFF00F522404FF47A7BB130B0FBC0
:1026F000FBF000F1AB0BD4F8403294F86D00103BC6
:10270000D4E98E125A1AC31E012B92442CD906F01A
:1027100003FF4FF47A7300F2E730B0FBF3F0AAEB5B
:102720000B0A50440690B4F8DC1140468944D4F8B2
:102730000C1201FB09F909F130094FEA4909494630
:102740000AF067FB234A94F876301060002B3FF4C0
:102750000EAF06AB4946E0690BF004FF84F81B029C
:1027600005E74FF4897BC6E73E20D8E740F23E51AB
:10277000F1E5E6B1B4F8F01119B3B4F8F22194F828
:10278000F431501CA4F8F22102FB033399420EDD10
:1027900094F828325BB10023A4F8F20184F82832BF
:1027A00002F08CFA00F00700013084F8F40104F51F
:1027B000087194F81C0208F0F3FB20B940F287512D
:1027C000C9E50A46DBE7049B84F8183200200BB009
:1027D000BDE8F08F0C0F0020F0B5044685B018B9A5
:1027E000A8213020FDF7E6FF072900F20681DFE887
:1027F00011F008004500450040000401F000F80019
:10280000020190F8183253B3B0F81632B0F88020B5
:1028100093421ED1B0F8CC21D31AA0F88020A0F8A2
:10282000CE312046D4E98C23C4E98E2305F0D6FAB4
:1028300094F8D331002B00F0CA800DF08FFB704B61
:102840001B68002B00F0C380204605B0BDE8F040B7
:1028500018479A1AA0F8CE21A4F88030E1E7B0F822
:102860001432B0F880209B1AA0F8CE31B0F81432A0
:10287000F2E705B0BDE8F04006F02CBD0DF0E5FE36
:10288000D4E98E23801A61EB0301012871F1000362
:1028900002DA40F21261A4E76FF0010383424FF0C5
:1028A00000038B4102DA40F213619AE7E5690DB14A
:1028B000B0FBF5F594F88730442B14D094F88620BB
:1028C000442A0AD00E2B08D0A2F14306724272416C
:1028D000B4F81612B4F880303AB1B4F816320133B5
:1028E000A4F8163214E00122F2E72B449BB2CA1A74
:1028F000150454BF4B1C01339BB2A4F8163294F854
:1029000019322BB9B4F81622B4F8CC319342E6D080
:10291000B4F8523202AEB4F880500133394FA4F803
:102920005232B4F8BA301D44B4F8B830013DED1A53
:10293000ADB23B685BB1B4F81612002220460139F3
:1029400089B29847B4F816321844A4F81602B4F8BD
:1029500016126B1A18041ED40023204600961A463D
:10296000FFF794FC98B3012812D1B4F81622B4F8FA
:10297000C811BDF808301344521A12049BB204D592
:10298000EA1A12F4004F18BF0B46A4F81632D0E72B
:1029900040F26A6125E794F88A3030460394002BB0
:1029A0000CBF3E23082384F8A93001238DF808309A
:1029B00002F0DEFC20460DF0D3FA002394F81C024E
:1029C00084F8043208F072FA202384F81C3205B02F
:1029D000F0BD012007F04EFC05B0BDE8F0400AF064
:1029E000F7B990F80432042B01D0CE21F9E6002388
:1029F00080F80432EBE7D421F3E6D821F1E600BFFA
:102A0000C8000020D00000202DE9F04104460E4609
:102A1000154690F8383103F0FF071BB10C273846F4
:102A2000BDE8F08101464C4808F01AFA202880469B
:102A3000F4D05822394604F588700DF09EFF84F8D2
:102A40001081C4F81461FF2384F8383136B102F0E4
:102A50004DF900F00700013086F8F40102234FF031
:102A60000008A4F8483184F8408107F0DFFA00F14B
:102A7000490620460DF0B2F80146B6B2D8B30BF0C5
:102A80005AFB00F5CD61284689B207F07BFA28444D
:102A9000C4F844010DF0D9FD30184FF00106A4F838
:102AA000268041F1000184F81861C4E954012046F0
:102AB0000DF0AAF8D0B1A5F2AA45314620460DF096
:102AC0000FF82D1AC4F81C514FF0FF326FF000437D
:102AD000C4E9562304F5A07194F8100108F060FAD7
:102AE00070BB4FF4E5713020FDF764FE3046AE3D1B
:102AF0000DF05DF9E5E72046DFF860800CF0F0FFAF
:102B0000AE30C4F84401B8F8040048B1E08C38B1E4
:102B100002F0ECF8B8F80430B0FBF3F202FB13005B
:102B200006440DF092FD361841F10001C4E95461EC
:102B3000002DC9D0AE1941F10001C4E95661C9E7C1
:102B4000D4E9542300212046C4E94A23C4E94C2394
:102B50000DF090F863E700BFE1CE00000C0F0020FD
:102B6000F0B5002385B0CDE9003303238DF806309E
:102B70006846FEF739FB88B11D4E01230027B3716B
:102B80000223CDE902778DF80E3002A8FEF72CFB68
:102B90000546A8B10023B37105B0F0BD00980AF056
:102BA00086FAE5E790F81C0208F00AFD94F81C028A
:102BB00084F8045208F07AF9202384F81C32DFE705
:102BC000029B002BE1D093F81C22202ADDD018882C
:102BD0004FF6FF739842DDD00221FEF7CBFA044690
:102BE0000028DFD14FF49A713020FDF7E3FD00BFDC
:102BF0000C0F0020044B0022DA719A7142F210721D
:102C00009A80FFF7ADBF00BF0C0F0020014BD871B9
:102C1000704700BF0C0F002008B505F0E5FF044B1E
:102C20009A6882422ABF9879002080F0010008BD8E
:102C30000C0F0020F0B5044685B090F8D33103F0B6
:102C4000FF05002B6ED190F80432032B6AD10DF0F2
:102C5000FCFCD4E98E23801A61EB0301012871F199
:102C600000035FDB6FF00103834275EB010304DABD
:102C700040F2BB513020FDF79DFDE269B4F8803091
:102C80000AB1B0FBF2F2013313449BB2A4F8143240
:102C9000B4F8CC31B4F814229B1A1BB2002B41DDDE
:102CA00094F81C0208F080FA00283BD0FF2384F837
:102CB0001932B4F8BA300DF10E07B4F880501A4E3C
:102CC0001D44B4F8B830013DED1AADB2336863B1BC
:102CD000B4F8141200222046013989B29847B4F89A
:102CE0001432184480B2A4F81402B4F81432EB1A67
:102CF0001B0417D4B4F8141200230122204689B211
:102D00000097FFF7C3FA68B1012808D1B4F814326C
:102D1000BDF80E2013449BB2A4F81432D6E740F25B
:102D20000261A7E705B0F0BDD00000202DE9B34354
:102D30000446062900F28380DFE801F00428152507
:102D40002C317C003F4B9B7903F0FF025BB9009272
:102D50000123B0F8CC11FFF799FA38B14FF4DA61DA
:102D60003020FDF727FD042384F8043206F040F9F3
:102D700007F070FF0023B4F88020A4F85232A4F8C2
:102D8000162284F8193202B0BDE8B083032380F81C
:102D90000432F8E70DF0A7F9C4E99001F3E72A4BF4
:102DA0001B681BB10246D0E99001984794F86D303A
:102DB000E569033BDFF88C90012BD4F80C3294BF0B
:102DC0004FF028084FF000089D4208F5807888BF32
:102DD000ED1A99F8073098BF00251BB9636B9D4227
:102DE00028BF1D46D4F8D87104F134000CF01BF84C
:102DF0000744022008F036FB0221ED1B25EAE575A9
:102E0000854228BF0546284608F072FB00B92F44CA
:102E10004246394620460CF094F8D4F8D831C9F827
:102E20000800E069184408F0EFFA0028ABD140F23E
:102E30007E3195E702B0BDE8B04309F0DEBF40F255
:102E400084718DE70C0F0020C4000020012A70B5AA
:102E500005460C46164615D0022A18D042BB05F08E
:102E6000C3FE3246014620460AF0F1F82A461249CE
:102E700094F8100107F0EEF940B940F29771302054
:102E8000FDF798FC05F0B0FEC5F8540270BDD0F80F
:102E90005412012220460AF0DAF82A46064994F82C
:102EA000100107F0D7F90028F0D14FF4F561E6E7FB
:102EB00040F2AE71E3E700BFD9270000014B9880D4
:102EC000704700BF0C0F0020343270B5054692B237
:102ED0000C461E4609F031FE25B1034A55601474B4
:102EE0005674147070BD00BF300F0020014B187075
:102EF000704700BF51000020014B5870704700BF61
:102F0000480F00200138C0B2032808B504D94FF497
:102F100050710620FDF74EFC014B185C08BD00BF48
:102F20006C5702000138C0B2032808B504D94FF429
:102F300050710620FDF73EFC014B185C08BD00BF38
:102F4000EE5702000138C0B2032808B504D94FF487
:102F500050710620FDF72EFC014B185C08BD00BF28
:102F6000645802000138C0B2032808B504D94FF4F0
:102F700050710620FDF71EFC014B185C08BD00BF18
:102F80003C59020008B5034610465A1E032A10D8C1
:102F90004A1E032A0DD8084A0129517014BF0A217C
:102FA00000211071937091721946FEF7EDFA00201E
:102FB00008BD6FF01500FBE786040020054A537A30
:102FC00020B143F0040300205372704703F0FB0369
:102FD000F9E700BF86040020F8B58D1F40F67A4C53
:102FE0000746BDF82460ADB21046BDF8182065450F
:102FF0003BD8841FA4B264458CBF0024012425461D
:10300000AFBB1D4F3F796FB15CB96FF450654D197F
:10301000062D06D86FF450640419062C8CBF0024CA
:1030200001242546FDB1814224D803FB0666B6F58E
:10303000FA7F1FDCA2F10A0340F676449BB2A3425A
:1030400018D80AF00DF942F2107300FB06F15A434A
:10305000B2EB410F0ED9BDF81C50BDF820008542DF
:103060008CBF002501252846F8BD0024C7E797F846
:103070007570C8E70025F6E710100020304BF0B55A
:10308000B0F860700C4611461A88B0F85E6085B0E2
:1030900097425D8828BF1746964228BF16461B2ECA
:1030A0002ED0B5F5A47F2DD040F6480301AA9D424D
:1030B00028BF1D460AF0FDF8BDF80A309F4228BF20
:1030C0001F46BDF80C30AB42E78028BF2B4623815A
:1030D000BDF806309E4228BF1E46BDF808309D420E
:1030E000668028BF1D46A580FF232370E3881B3B15
:1030F0009BB2E02B08D940F219613920FDF75AFB49
:103100001B2FCED105B0F0BD63881B3B9BB2E02BDB
:1031100002D940F21B61F0E7238940F64812A3F57B
:10312000A4739BB2934202D940F21D61E5E7A388E4
:10313000A3F5A4739BB29342E4D940F21F61DCE78C
:10314000101000202DE9F341002304460E461746D7
:1031500000F10A08CDE900336846FEF745F808B1EA
:10316000002015E0009DA542F6D03046EB1C0AF089
:1031700071F83946AA780BF029F90028ECD005F14E
:103180000A036A7A4146607A0BF020F90028E3D0FE
:1031900002B0BDE8F0810000054A134692F82020F5
:1031A00053F8211B11F8030BC0F380100BF00EB97C
:1031B0007C150020114BF7B59C7E0646DD7E9F8B6B
:1031C00014B900F075FD0446A5B900F071FD05467F
:1031D00014B9092003B0F0BD0028FAD0304601A987
:1031E0008DF804408DF80550ADF806700BF099F994
:1031F0000020EFE7002CF1D1EBE700BFD414002052
:1032000010B503210020FDF7B5FF044670B9032176
:10321000FDF772FF044620B940F24D313920FDF729
:10322000C9FA034B93F960100CF014FC204610BD52
:103230001010002038B50BF0C8F8002501F060F838
:10324000234C00F043FD0BF046FD01F0DFF902F0E6
:1032500061FB01F003FA012000F0FCFC1D4B1E4A4B
:1032600029465D831A601B229D839A80F9229D77EF
:103270001D761A4B22835868194A1B892260142232
:10328000E06104F12400238484F86150A4F85450D0
:10329000A576A580A5750DF070FB012342F2107292
:1032A00004F13A0084F8565084F8243084F8393018
:1032B000C4E90A220CF0C9FE04F144000CF0EAFE55
:1032C0000022002384F87050C4E91A2338BD00BFDF
:1032D00010100020D414002003021B00EE5702003F
:1032E0001B004801044B41F64C521B215A611974D2
:1032F000C3E90222FFF79EBFD414002073B5394DF5
:103300000446AB6840F8343F09F008FF064600F079
:10331000C9FC2B7C10F0200FE68784F83C30324B40
:103320000EBF1B22AA8869881B6814BFA4F85E1010
:10333000A4F85E20A4F860201BB194F974102088D2
:1033400098472A490B79003B18BF012384F8753050
:10335000274B1B6813B108312088984794F87530C3
:103360002046002B41F64C5318BF4FF47A73E361AB
:10337000FFF720FF064648B102212088FDF710FF25
:1033800060B340F2D3513920FDF714FA012363866C
:10339000184B1B6813B1014620889847164B1B68D1
:1033A00013B1002120889847697804F11400AB8894
:1033B0006A8801910333297803329BB2009192B25B
:1033C00004F11801FDF748FF636913B94FF4BE61BA
:1033D000D9E7A3691BB940F2F151D4E70926304679
:1033E00002B070BDD4140020D800002010100020BE
:1033F000EC000020E8000020E40000202DE9F3416B
:1034000005460E460CF067FB002800F0AF8028460A
:103410000CF0E4FB30B1B6F80130013B7F2B01D951
:10342000122404E028460CF0DDFB20B90C242046D1
:1034300002B0BDE8F081284609F0BCFE0028F5D1B5
:1034400028460CF0F1FA80460028EFD1284603F018
:1034500013F80028E4D042F21073B6F80170F17846
:1034600028465F430CF0A6FB04213078FDF782FE6E
:10347000044606213078FDF77DFE002C78D038B167
:1034800041F6F3113920FDF795F9044690F8BD8017
:10349000414E3368002B6DD0403420460CF0B9FD0E
:1034A000002867D020460CF0A8FD002862D1B8F1B2
:1034B000000F08D0394B20461B689847002859D088
:1034C00041F60721DEE7364942463368204649691E
:1034D000984700284ED041F60C21D3E728460CF03F
:1034E0007DFB40B902210DF10600FDF7CDFD06463A
:1034F00058B90D249BE728460CF082FB0028F1D137
:10350000284B1B79002BEDD18AE7002100F0ECFF5E
:10351000BDF806302846314633800CF09CFB284627
:103520000CF06EFBA8B9296A28460CF073FB014623
:103530003046FFF7E3FE044600287FF478AF3A46B2
:1035400031462846FFF760FA044620B141F638219B
:1035500098E70121ECE7134BDB6D002B3FF467AFDD
:10356000024606F58D713046984760E742245EE7D3
:1035700000288AD128460CF029FB01460028ADD14D
:103580003A462846FFF740FA044600283FF44FAF7A
:1035900041F6152176E700BFE0000020DC000020A6
:1035A000D414002010100020034B5A8802801B788E
:1035B00083700020704700BFD41400207FB583784B
:1035C00006461A2B09D8042B05D9012202FA03F367
:1035D000314A134205D112251AE0292B01D03B2B89
:1035E000F9D13088B0F5706FF5D269460AF02DFF39
:1035F00088B9019B93F8182102F0FF05C2B9B2788F
:1036000083F81921FF2283F8182168460BF03CFB50
:10361000284604B070BD09213088FDF7ABFD044693
:10362000002837D002A9B0F8AC010AF00EFF08B1AB
:103630000C25EDE70821B4F8AE01FDF79BFD20B99C
:1036400040F628113920FDF7B5F803781BB994F836
:10365000C831032BECD1039B93F82E21002AE7D12C
:1036600094F8F02102F0FF05002AE1D1B4F8B0216E
:10367000A3F8302194F8B42183F83221027D83F835
:103680003321B27883F8342184F8F021FF2283F8C3
:103690002E21BDE70225BBE7200038040188A1F1F7
:1036A0001B039BB2E02B0CD8428844F24810A2F5D1
:1036B000A4739BB2834204D8034B002019805A8024
:1036C00070471220704700BF10100020034B1A886B
:1036D0005B88028043800020704700BF10100020EC
:1036E00038B50478427804F00103857804F00204C8
:1036F00052EA030101D1112038BDBCB9002DFAD026
:10370000002B08BF144601E000242546204609F09E
:103710006BFE0028EFD0284609F066FE0028EAD0AC
:10372000054B00209C76DD769883E5E7002BEBD1F6
:1037300014461D46EAE700BFD414002013B50088E4
:1037400069460AF082FE18B10224204602B010BD7C
:10375000684609F0A1FE0028F6D0019890F82A31B9
:103760000BB13A24F1E790F8D23003F0FF04002BBC
:10377000F7D190F8C9309B0706D1FF2380F82A3192
:1037800068460BF081FAE0E70249CA300BF0CBFA49
:10379000DBE700BF07F500002DE9FF41077804468D
:1037A0000E46EF2F04D91226304604B0BDE8F08152
:1037B000B0F80130ADF80C309DF90C209DF80C30BC
:1037C000002AF0DB9DF80D209507ECD1D80660D4D7
:1037D000990603F0030259D5002AE4D11D0703D549
:1037E00003F06703012BDED16378180711D4217928
:1037F000E278E07942EA0122617942EA0142A17964
:1038000041EA0021207A41EA00418A42CBD81F2AAE
:10381000C9D9627A013A062AC5D8A27A032AC2D83F
:1038200013F0040102D1023A012A03D8E27A012AF4
:10383000B9D811B9A27C032AB5D813F01001227DA2
:1038400037D0012AAFD1237E012BACD8002940D03C
:103850006378D90703D500F0BDF9002840D063781C
:10386000227D03F01803082B4AD1022A38D11FFA0F
:1038700087F803214046FDF77DFC0546002845D02A
:1038800009F098FC00284DD00C268DE7032AA5D11D
:1038900089E713F0600F86D103F00F0203F00703EE
:1038A000052BA1D0931E012B9ED9002A7FF47BAF5C
:1038B0009AE7022A04D103F06F03092B7FF473AF58
:1038C000A37D013B022B3FF66EAFE37D0F2BBAD9F0
:1038D00069E700F0EDF9820707D4237D022B01D1BF
:1038E000112661E7A37D022BFAD000F0E1F943072E
:1038F000AED4237D032BF3D0A37D032BA8D1EFE718
:10390000022AB4D0237F002BB1D0E9E7032140463F
:10391000FDF7F2FB0546002843D0234B93F96010D6
:103920000CF098F8002138460CF053FB28BB2846D1
:103930000CF049F921463070E074284602F0F4FD9D
:10394000E37E0646002B3FF42FAF00287FF42CAF18
:103950000246E96C6846FDF75BFD3246E86C0121E2
:1039600009F040F9E96C68460422FDF751FD324642
:103970003146E86C09F036F916E740300CF049FBA7
:103980000028D4D0637813F0330F7FF40CAFA77DF9
:103990002846296A0CF03EF9FFF7C4FA8742C6D0E0
:1039A00072E7072600E700BF1010002030B502794B
:1039B0008BB00346042A5CD84488B4F5804F58D8AD
:1039C0002D4800211044ADF800108DF80810827CBD
:1039D000457B42F010028DF81D1042EA4502C57D7C
:1039E000007F42EA850242EAC00202F01F028DF81F
:1039F0000020BDF80020ADF809201A888DF80E408F
:103A0000240A8DF80B20120A8DF80D108DF8101075
:103A10008DF80C208DF80F405A7BD3F807008DF8F5
:103A200011205A79059002A88DF812209A798DF804
:103A30001320B3F80B209B7BADF818208DF81A30BB
:103A40007F238DF81B3001238DF81C308DF81E303C
:103A50008DF81F108DF820108DF823108DF824108C
:103A60008DF821108DF822106946FFF795FE0BB0F6
:103A700030BD1220FBE700BFEE570200027803467C
:103A800072B1427862B142881A2A09D982881A2A08
:103A900006D90068034A106000209B889380704715
:103AA00012207047D414002002680020014B9A6055
:103AB000704700BFD41400200378A3F10A02112A32
:103AC0009BBF024A0020122013747047D4140020B8
:103AD000014B18760020704710100020014B5876DB
:103AE0000020704710100020024B1B6803B11847DC
:103AF00011207047D400002008B5052000F0B6F86A
:103B000004F0CEFA014B024ADA6508BD101000201D
:103B10007D30000008B502F091FCFFF76BF8024819
:103B2000BDE8084002F074BC8410002008B50AF01B
:103B30004AFC064800F58471FEF700F8022008F000
:103B4000CEFF0020BDE8084008F0C9BF8410002067
:103B500008B50122064B83F80A2202F077FC03F035
:103B600041FCFFF7E3FFBDE8084000F097BF00BF4E
:103B70008410002010B5064C064904F503700AF0C5
:103B80009AFA04F504700449BDE810400AF093BAAB
:103B900084100020F0000020F800002010B5094C2F
:103BA000094904F503700AF086FA04F50470074920
:103BB0000AF081FA04F505700549BDE810400AF0E5
:103BC0007ABA00BF841000200801002010010020F4
:103BD00000010020014B93F80A0270478410002076
:103BE00038B5094C0D4600F035FFD4F80C02C4F886
:103BF00004510AF058FAFFF775FB01F08FF8012322
:103C000084F8183238BD00BF84100020014B93F8AF
:103C1000180270478410002010B50D4CD4F8100223
:103C20000AF041FAD4F814020AF03DFAFFF702FB59
:103C3000202000F029F82F2000F026F8262000F0A0
:103C400023F8292000F020F8002384F8183210BD52
:103C500084100020014B83F8190270478410002063
:103C6000014B93F81902704784100020C2080549DF
:103C7000012300F0070003FA00F08B5C184388541E
:103C8000704700BF58000020C208054900F0070037
:103C900001238340885C20EA03008854704700BFFA
:103CA00058000020014BD3E9000170475800002064
:103CB000054B1868C0F3C022C0F30020400040EA62
:103CC000820040F0010070475800002008B506F05F
:103CD000A3F90023074A32F82310814205D302EBEF
:103CE00083039B78044A137008BD01330C2BF2D177
:103CF0000023F7E7345802009E120020024B187888
:103D0000072828BF072070479E12002010B544687E
:103D1000238884F87B11A4F87C3194F86C00FFF7B9
:103D200011F984F87E0194F86D00FFF70BF905494D
:103D300084F87F0104F5B9700AF0F5FF002384F8D8
:103D4000243110BD3BE10000406807490388A0F81A
:103D50006E3190F8643080F8703190F8653000F280
:103D6000651003730AF0D9BF51E100002DE9F04F4F
:103D70000C4685B0054608460AF065FF0646204613
:103D80000AF059FF804620460AF059FF8346204634
:103D90000AF057FF6C68074694F8873094F886A0BD
:103DA000242B30D104F18709002E4BD00BF0070BE8
:103DB00058460AF01CFA88B394F86C3098422DD01B
:103DC00094F82421012A0CBF94F8262194F8682045
:103DD0001BEA020F36D0BAF1220F1FD094F86520EB
:103DE0001BEA020F1AD1461EF6B2032E06D8013B7B
:103DF0005E4ADBB21644032B31790BD940F21F2106
:103E00000620FCF7D7FCBAF1220F40F0AA8004F19B
:103E10008609C9E713441B798B4213D808F00701C0
:103E200008460AF0E4F9C0B394F86D30834234D008
:103E300094F82431012B0CBF94F8273194F86930A1
:103E400019422AD194F82431012B15D11E2128467C
:103E5000FFF75CFFBAF1220F12D16B68182283F8CA
:103E600009210A2283F8862093F8C230002B44D11E
:103E700040F2B3217E20C4E7002384F82431E9E72F
:103E80000023284689F800300BF0A9F818212846AD
:103E900005B0BDE8F04F0BF0CEB803AB20465A4654
:103EA00000933B460AF0AEF96C6880BB94F824316D
:103EB000012B29D1B4F8803004F5267294F86C10E7
:103EC000B4F828010AF0FEF90446C0B901462846B4
:103ED000FFF71CFF89F800406B6803F187029145EA
:103EE00002D1002283F887206B68002403F1870247
:103EF000914533D128460BF072F8002032E06B6810
:103F0000282283F88620E7E784F82401E4E7B4F860
:103F1000800047F6FD73A4F89872C0430744BFB20F
:103F20009F4206D92823284684F8A93001F020FAB8
:103F3000DAE794F887300E2B02D00B3B012B01D827
:103F40002A23F0E79DF80C3084F89A329DF80D3062
:103F500084F89B32262389F80030C5E783F8C240F5
:103F6000CBE7022005B0BDE8F08F00BF6458020027
:103F7000064B002283F850204FF6FF72A3F8522020
:103F8000A3F85420A3F85620704700BFA0120020C9
:103F9000064BB3F85220824201BF002283F8502022
:103FA0004FF6FF72A3F85220704700BFA012002006
:103FB000014BA3F854007047A0120020094A0346A1
:103FC0004FF6FF71B2F85200884206D192F85010B5
:103FD000012905D001201A60704700201860704741
:103FE00000207047A0120020074B93F85020012AB0
:103FF0001BBF0120B3F85420002083F8500018BFE5
:10400000A3F85220704700BFA0120020014BA3F874
:1040100056007047A0120020074B0246B3F8561016
:10402000B3F85200884205D193F8500018B101202E
:104030001360704700207047A01200200A4BB3F8AD
:104040005210B3F85620914201D0002070474FF62D
:10405000FF72A3F8522093F85020002AF5D00022D6
:10406000012083F850207047A0120020064BB3F8BF
:104070005210B3F85620914203BF93F85000B0FAA3
:1040800080F0400901207047A012002050B90A4A70
:104090000120134603F8010B0868C2F801008A8862
:1040A0009A807047012805D1034B0A68D8719A603D
:1040B0008A889A81704700BFF812002048B90A4BDD
:1040C000187880B1D3F80120B3F805300A608B80EE
:1040D0007047012806D1044BD87920B19A689B8992
:1040E0000A60F4E700207047F812002020B9054B61
:1040F000187800F00100704701280ABF014B00202A
:10410000D879F6E7F8120020F7B58B8800228DF8F1
:104110000600ADF8043008680B4B8DF80720014607
:104120001C7803F5AC73019DD0B2844201D80820FD
:1041300007E0D3E9007601320833AE4208BF8F4270
:10414000F2D103B0F0BD00BF08130020084B0146B8
:10415000002230B55C7803F58173D0B2844201D877
:10416000082004E013F8015B01328D42F5D130BD27
:1041700008130020F0B5254D89B095F8984105F257
:1041800099116846224607F059FD214668460AF013
:104190003BF90446B8B300EB400102A8C9B2FCF7F2
:1041A00055FD601E95F8A1610124C0B295F89821D3
:1041B00005E0731CB3FBF2F102FB1133DEB206F132
:1041C00020030DEB030111F8203C002BF1D100EB93
:1041D000400201F8204C06EB460320322B446A448F
:1041E00012F8187C83F8A27112F8177C12F8162CBA
:1041F00083F8A37183F8A4210138AB19C0B283F806
:104200009941FF28D2D109B0F0BD00BF08130020AA
:1042100070B5064688B00C46002A4FD02A4A92F85C
:10422000A131D01890F8991121B94FF4807128204C
:10423000FCF7C0FA03EB43010133114491F8A2519A
:10424000E57091F8A35191F8A411257161710021D5
:1042500080F8991192F89811B3FBF1F001FB10333B
:1042600082F8A13192F8C23123B9184902F5DD7004
:104270000AF056FD65790D220021684605F03F05DC
:1042800045F0400565710CF078FBE37804AA6946B7
:104290008DF80F30304623798DF80D508DF80E30A3
:1042A00004230CF0AEFA9DF81F3023709DF81E30E9
:1042B00063709DF81D30A37008B070BD03216018B5
:1042C000FCF7C4FCD6E700BF0813002075410000CE
:1042D000044B5A78824286BF1B1893F84A0100208B
:1042E000704700BF08130020044B5A78824286BFF3
:1042F0001B1893F842010020704700BF08130020EC
:10430000064B00224FF461711A8083F8C32183F8B1
:10431000C421A3F8C61183F8C221704708130020F6
:10432000014B83F8C401704708130020014BB3F818
:10433000C6017047081300200A4B30B55C788442F0
:104340000ED9184490F802012B3003EBC004A57974
:104350000D7053F8300010600120A388938030BDA9
:104360000020FCE7081300200246074810B590F82B
:10437000C34124B1417821B1023003F0BDFE204693
:1043800010BD0C46FBE700BF081300202DE9F74FD6
:104390002F4C9A46804689466378834256D9231823
:1043A00093F8425185F00105F9B193F84A31E3B928
:1043B00045F002070135BAF1000F18D1FA070AD506
:1043C000062104EB0810524601FB0841823001F53A
:1043D0008571FFF71DFFBB0734D504EB081052466B
:1043E00049460230FFF714FF2CE02F46E3E794F82C
:1043F000A1614FF0010B002DE0D0A31993F89911A2
:10440000019399B90092DAB100F058FC019B06EBD8
:104410004601009A4FEA102C83F899B1214481F8A3
:10442000A201000C81F8A3C181F8A401013694F81F
:104430009831013DB6FBF3F103FB1166F6B2DAE702
:1044400047F00407384603B0BDE8F08F0027F9E7CE
:1044500008130020074B5A78824209D91A1892F89B
:1044600042212AB9062202FB003000F58570704710
:104470000020704708130020064B5A78824281BF03
:104480001B1893F83A01B0FA80F0400998BF002059
:10449000704700BF0813002030B5002442F21075A9
:1044A000A0F84040B0F844404C43B4FBF2F4A0F80C
:1044B0004440541E05FB0343B3FBF2F3A0F8423023
:1044C000084BB3FBF2F30133A0F84830838F05FBB0
:1044D0000344436B5943B4FBF2F4B1FBF2F284633F
:1044E000426330BD005A620270B504460D4651BBAE
:1044F0004FF434720CF041FA012384F8DE5084F852
:104500008E306FF0360384F8D930042384F8DA3023
:104510006FF03B0384F8DB306F2384F8DC306FF0FE
:104520003C0384F8DD30062384F8DF302B2384F845
:10453000D830FE2384F80E317F2384F88530202381
:1045400084F81C3270BD012917D10023A0F8DC319A
:1045500080F8D3310D4BC26913441146B3FBF2F31B
:10456000C0F8B03040F6B833A0F8B430C38C04F1D2
:104570007800BDE87040FFF78FBF0229E2D1B0F8A4
:10458000A632D0F8A022C169F1E700BF7FC3C901FC
:10459000034B80F874101B680BB1008818477047F4
:1045A00018010020074B93F900301844142804DC4C
:1045B00010F17F0F03DB40B27047142070476FF09B
:1045C0007E007047D01400207F2307B50DF107004F
:1045D0008DF8073004F02CFE9DF9073068B10A4AC7
:1045E0005078404240B21844142808DC10F17F0F84
:1045F00007DB40B203B05DF804FB1846FAE714206D
:10460000F8E76FF07E00F5E7D0140020024B00229F
:104610001A705A70704700BFD0140020054B1B78E9
:1046200033B9054B1A681B7902600371012070478A
:1046300000207047D214002060000020054BFF22AC
:104640001A70054A016811600179117100221A700F
:10465000704700BFD214002060000020064B07B551
:1046600018681B79009068468DF80430FFF7E6FF64
:1046700003B05DF804FB00BF32C50200034640787A
:1046800098B1DB783C2B05D8084AD35C1B1A5842FA
:104690005841704703F11602D2B2042A04D8034AE3
:1046A000134413F8AD3CF1E7012070476C58020049
:1046B0003C2908B5C17003D80B4B5B5C437008BD47
:1046C00001F11603DBB2042B04D8074B194411F88F
:1046D000AD3CF3E7FF2904D040F259412A20FCF712
:1046E00069F80123EAE700BF6C5802002DE9F043A6
:1046F00085B089461446984602A909F0A6FE0546EB
:1047000000283DD1039E34B9012486F88D4020460F
:1047100005B0BDE8F08377692146384608F005F812
:10472000014678B3194B5B88A3422DD301AA3846C2
:1047300008F053F996F88D300198002B0CBF4946CC
:1047400002210AF08BF9019822464146033007F016
:1047500075FA2146384608F02DF8044618B97D212F
:104760002B20FCF727F89DF808302BB102A80AF09F
:104770008BFA039BA3F8CA51002386F88D30C6E755
:104780000124C4E70446C2E72C46C0E7D414002045
:10479000024B987FC04300F001007047D414002002
:1047A000034B987F80F00200C0F34000704700BFC9
:1047B000D414002083230B70014B1B78CB707047FF
:1047C000F41400202DE9F743876981460D463846E9
:1047D00008F0F5F8014618B9FC211020FBF7EAFFB4
:1047E00001AA384608F0F9F8064610B94FF480716E
:1047F000F3E7019BB9F8000003F103081D4B1B68A8
:104800007BB9B9F800300198AB800023EE806B7261
:104810000AF02CF901280ED002280CD04FF48D712B
:10482000DBE732464146984704460028E9D1204656
:1048300003B0BDE8F0832872384608F0D6F8044685
:1048400010B940F22311C8E7FB2E02D94FF496713C
:10485000C3E7286810B940F22D11BEE73246414641
:1048600007F0ECF9384608F008F80028DFD140F2EC
:104870003111B2E7200100202DE9F34706460D462D
:104880000527DFF86C81DFF86C912B694BB11B7A3F
:104890001BB97E211020FBF78DFF2C6994B90020F5
:1048A00066E06C68237A012BF9D0EFF3108372B6BF
:1048B0006A6812686A6003B962B62C61237A0BB920
:1048C000A421E7E794F808A05FFA8AFA27720AF1B0
:1048D000FF330B2B77D8DFE803F073061027703D0A
:1048E0004E3D3D3D3D61636813B94FF4D471D1E74E
:1048F00031462046984704201EE0636813B940F211
:10490000B111C7E73146204698470346ADF8040089
:10491000C0B2C3F30723012B58D0022B0CD10023C4
:104920002B610028B1D023E0636813B940F2B911BC
:10493000B0E7204698470020EFF3108372B6227A42
:10494000052AD1B24AD1002222722A61002BE8D175
:1049500062B6E6E7D9F80030002BECD0524631467B
:1049600060689847BAF10A0FC5D100232B61042073
:1049700002B0BDE8F08763680BB9B3218AE70D2266
:1049800000243270012219885869B270A6F8031009
:104990007271B47107F071FF2C61E8E7606810B9BB
:1049A00040F2E11176E7D8F80030314698470346E7
:1049B00060B1002302202B61DAE74FF4F97169E757
:1049C00040F2F51166E74FF4FC7163E784F808A044
:1049D0000028CDD1002B7FF458AF60E711B940F229
:1049E000192157E7002B7FF450AF62B64DE700BFA7
:1049F0001C0100202401002070B5144C1426002155
:104A0000231D324618460BF0B8FF034601252574D6
:104A100004333246002104F11800C4E901330BF0DD
:104A2000ACFF84F8245004F11C03094AC4E906339E
:104A30000023E362236384F83430C4F83530C4F8CB
:104A4000393084F83D30136070BD00BFF41400208D
:104A50002001002010B5084C2378FF2B04D04FF420
:104A60009D711020FBF7A6FE07F000F82070BDE84E
:104A70001040FFF7C1BF00BF6500002010B5034C18
:104A8000207807F00FF8FF23237010BD6500002089
:104A9000014B187807F016B865000020014B024A58
:104AA0001A6070471C010020C547000010B5064978
:104AB0000446FFF7E1FE28B920460449BDE810404E
:104AC000FFF7DABE10BD00BF0C150020F81400205F
:104AD000134610B5027A22B140F295211020FBF75F
:104AE00069FE0A4601460248BDE810400AF0F5B8E2
:104AF000F8140020044890F834301BB903492C30D6
:104B00000AF008B9704700BFF4140020CDEC000093
:104B10000346064890F83E203AB190F83D2022B96D
:104B2000034900F8353B0AF0F5B87047F41400204B
:104B3000B54700000A4610B5037A23B140F29D2123
:104B40001020FBF737FE014607230248BDE810405E
:104B50000AF0C3B80C1500201346027A0AB103729A
:104B600070470A46014601480AF0B7B8F814002019
:104B70001B234FF01B128384038482618382C260F3
:104B8000038541B94FF4A473094AC3844384C261C5
:104B9000C382026170474FF429634FF4A472C38447
:104BA000438403F12963C282C3610361704700BF7C
:104BB0004801480103460846B3F85820B3F84C10A2
:104BC000B3F842C08A42F0B493F86D4028BF0A4659
:104BD000B3F85060B3F85A10033CB3F84870B142D0
:104BE000E4B2B3F8465028BF3146012CA3F8422066
:104BF0008BBFB3F84A604FF429660C464FF4296422
:104C00009742A3F8464038BF17468E4238BF0E463B
:104C10009445A3F84870A3F84A6026D12C1B18BF0E
:104C20000124B3F85420B3F84E50B3F840609542D5
:104C3000B3F8441028BF154693F86C20033A012AB4
:104C400015D9B3F85220B3F85670BA4228BF3A4685
:104C5000AE42A3F84050A3F8442002D1914200D1C3
:104C600044B10549F0BC0AF05EB80124D9E74FF41D
:104C70002962EDE7F0BC70472DED00000B8BA2F828
:104C800009001046A2F80B304B8BA2F80D308B8B2D
:104C9000A2F80F30CB8B0249A2F811300AF03DB8D0
:104CA0008FED0000014B1878704700BF33150020CE
:104CB000014B1878704700BF66000020094AD2E90E
:104CC0000003434083EAB01181EA43214FEAF343F2
:104CD00011605360044B58434FEAF06000EB8000D2
:104CE000704700BF34150020BB79379E094AD2E9CE
:104CF0000003434083EAB01181EA43214FEAF343C2
:104D000011605360044B58434FEAF06000EB8000A1
:104D1000704700BF68000020BB79379E10B50A4C71
:104D200008210948FBF792FFD4E900231343F7D089
:104D3000064CFFF7DBFF2060FFF7D8FF23686060B9
:104D40000343F6D010BD00BF6800002034150020DA
:104D5000174B184A9A60184A5A60184A1A60184A3B
:104D60009A62184ADA62184ADA60184A9A61184A4E
:104D70001A63184A1A62184ADA64184A9A64184A76
:104D80005A62184B184A9A60184A5A62184ADA62EC
:104D9000184A1A61184A5A61184A9A61184A1A63DD
:104DA000184A9A64184ADA64184A9A63704700BF2E
:104DB0002801002089F00000BFF0000037F100005A
:104DC00015F3000087F30000995400009DF30000E4
:104DD0007D570000F155000057F400007FF40000FB
:104DE0004D56000030020020ABF000001BF4000024
:104DF000BFF3000063F30000E3F30000415500003F
:104E000025F50000C5F40000B3F4000001F4000033
:104E1000044B054A5A65054B054A1A65054A5A6509
:104E2000704700BF2801002093F2000030020020EC
:104E300079F20000C1F20000054B064A9A65064A65
:104E40001A66064B064A9A65064ADA65704700BF3D
:104E500028010020FFE200006D3D0000300200202C
:104E6000D5E10000A7E300003A2A73B505460C46D9
:104E70003ED83A2A45D8DFE812F049008D00970065
:104E8000A300BB00A100A100CA00CC00D200A10079
:104E9000A100D700E200CC0044004400E600A100DD
:104EA000A1000101010108010F011B0144004400A0
:104EB0003A01570164016A0170017B017D017F01A4
:104EC00081018C019401C301C501440044009C018F
:104ED00044004400B501AB01AD01AF01B101B70120
:104EE000BB01B901BF01A1004400BD01B301C10173
:104EF000EB2A00F08B81FF2A00F08A81EA2A00F079
:104F0000838140F266415120FBF754FC416841F235
:104F10007070D1F80C32B1F80622A3F57A7585428B
:104F20000CD84FF47A70B3FBF0F303F550639BB2E7
:104F30006420B2FBF0F20120D2B20DE040F2E24078
:104F40006FF45065B3FBF0F39BB25D19062DEFD9FA
:104F5000B2FBF0F20020D2B22271D1F80822B0B137
:104F60006420E3711B0AB2FBF0F292B22372204676
:104F70006271120AA271B1F8103263721B0AA37235
:104F8000B1F8121202B0BDE8704009F097BD40F2CE
:104F9000E240E6E743682046D3F8F811013102B059
:104FA000BDE8704009F0BEBD02784368012A02D115
:104FB00093F8103101E093F81931237102B070BDFC
:104FC0004568204605F5107109F0BBFD05F5127125
:104FD000204609F0C0FD05F50871204609F0C1FD25
:104FE000D5F80011204602B0BDE8704009F0C7BDF9
:104FF0004168204601F5F37109F0C7FD6B68204652
:10500000D3F8041102B0BDE8704009F0C0BD436898
:10501000CEE7084602B0BDE8704000F069BB02B0C0
:10502000BDE8704000F074BB0E230B7159234B7127
:1050300000238B71F323CB7130230B72BEE74368DF
:1050400093F80A31B9E7037846687BB996F81031CE
:1050500063B196F80D11204609F004FE96F80C1184
:10506000204602B0BDE8704009F000BE96F80B1172
:10507000204609F0F7FD96F80A11F1E7416820464D
:1050800002B0BDE8704009F0E7BF436893F82621FD
:10509000227193F8273109E0436893F82421012A0B
:1050A000F4D093F868200A7193F86930637185E74A
:1050B000456895F8030209F018F90146204609F001
:1050C000BCFD95F80202C31E012B07D895F86C3081
:1050D000DA1E012A02D8984218BF002009F005F90B
:1050E0000146204602B0BDE8704009F0A2BD456807
:1050F0000023204601218DF8043009F0BBFC2A7CF6
:1051000001A96B7C2046032A03F01F0308BF00227D
:1051100043EA82139DF8042002F0200213438DF825
:10512000043009F0B4FC49E7436811211888FCF702
:1051300021F800F15B01204602B0BDE8704009F0A3
:1051400055BD084602B0BDE870400AF06EBF084683
:1051500002B0BDE870400AF070BF334B1B68002BF3
:105160003FF42CAF2946204602B0BDE870401847F6
:105170002E4BF3E72E4BF1E72E4BEFE72E4B1B6840
:10518000002B3FF41BAF0246232002B0BDE8704065
:105190001847294B1B68002B3FF410AF0246242010
:1051A000F3E7254B1B68002B3FF408AF0246252090
:1051B000EBE7436811211888FBF7DCFF00F17D0263
:1051C00000F15B01204602B0BDE8704009F01ABD55
:1051D0001A4BC3E71A4BC1E71A4BBFE71A4BBDE79F
:1051E0001A4BBBE71A4BB9E71A4BB7E71A4BB5E7AF
:1051F0001A4BB3E71A4BB1E71A4BAFE71A4BADE7BF
:105200001A4BABE71A4BA9E71A4BA7E71A4BA5E7CE
:105210004368204693F88F22D3F8901202B0BDE87D
:10522000704009F037BC00BF3C0300204003002061
:105230003803002044030020880300204803002096
:105240004C03002054030020580300206803002072
:105250006C030020600300205C0300206403002036
:1052600050030020700300207403002084030020FA
:10527000800300207C030020780300203C2803D812
:10528000064B53F82000704700F11603DBB2042BE5
:1052900001D8AD38F4E70020704700BF2801002096
:1052A0003C2803D8064B53F82000704700F1160342
:1052B000DBB2042B01D8AD38F4E70020704700BF03
:1052C0003002002030F8023CF7B504460E467BB1B0
:1052D00000238DF804308DF8053000209DF804304F
:1052E00063F307009DF8053063F30F2003B0F0BDB2
:1052F0001B4B30F8A05C1B680BB128389847194B42
:105300001B680BB128469847174B1B680BB1284602
:1053100098470A230027A6F803503370B770637AC2
:1053200054F8880C737107F0BAFA18B9B1216320E8
:10533000FBF740FA2846FEF72BFE39462846FBF7D6
:105340002FFF02212846FBF72BFF18B9074B1B68DC
:1053500003B1984704238DF804300223BBE700BF54
:1053600090030020980300208C0300209403002069
:10537000F7B5456804464FF6FF776E690DF10201F7
:105380000DF101023046ADF8027007F02FFA01A9C5
:10539000304607F04DFA40B1019807F024FB6168F0
:1053A00000220272FFF7C6FBE8E7044905F1A000FE
:1053B00003B0BDE8F04009F0B0BC00BFC55200002A
:1053C000F0B5044685B00D46FF2600F8C16C10F814
:1053D000C23CF3B1184F3B781BB148211F20FBF7AB
:1053E000E9F90C21381DFBF731FC3E70002304F86D
:1053F000C13C09232A4602F8033BD4F80930C5F81A
:105400000330D4F80D305360D4F81130936005B0F8
:10541000F0BD01A80C21FBF719FCA4F52C73039A2D
:10542000C3F8042101AB03CB44F8CA0C44F8C61CF2
:1054300004F8C26CDAE700BF3C15002010B5054C3B
:1054400023782BB90C21201DFBF700FCFF232370D0
:1054500010BD00BF3C150020024690F8EE31BBB9EC
:1054600090F8EF3103F0FF010BB100207047094BBA
:1054700018780028F9D01970D9680433C2F80411DB
:1054800003CBC2F8E601C2F8EA11FF2382F8EE313D
:10549000012070473C150020426870B592F88730B3
:1054A00004460D463BB1142B05D0123B0B2B94BF89
:1054B0000820012070BDD2F8143183BB92F8C830A7
:1054C00013B9204609F07BFD6168284601F5EF71AC
:1054D00009F04EFB2846666809F054FB6168C6F87F
:1054E000000128460B8801F2BB2121F8023C09F09B
:1054F0002DFB6168284601F2C32109F02FFB636888
:10550000002583F8EE5160680C4900F52C7009F015
:1055100001FC63681622284683F88720CAE70C221C
:105520000321204609F06EFD63683222204683F88D
:10553000872009F044FD0020BCE700BFC1530000F4
:1055400038B54368044693F887201D2A04D04FF4E9
:10555000DE711F20FBF72EF9002293F8C8101D887A
:1055600003F5D37083F8C72069B10B4983F8C820CD
:10557000A3F8B05183F8AF2109F0CCFB6368002297
:1055800083F8872038BD012283F8AF11A3F8B0510A
:10559000024983F8B221EFE701F30000F3F20000C3
:1055A0000B46072210B503F8032B0446D0F8092058
:1055B000C1F80320D0F80D205A60B0F811201A81EC
:1055C000C27C9A7210F8483C7BB1084B1B681BB92F
:1055D00035211C20FBF7EEF8A0F5C072A0F5847110
:1055E00068389847002304F8483C10BD9C0300200D
:1055F00038B50578446825B994F8873023B101257A
:1056000018E0A36FDB07FAD44A680E4B8968134091
:105610000D4AC4F8D830C3F307630A4043F00803C7
:10562000C4F8DC2084F8DB3009F0C9FC25B9042378
:1056300084F88730284638BDA36F002543F0010366
:10564000A367F7E72FC904F76FDB0006436870B55F
:1056500093F88620042A30D14C681A4A8E6822407A
:105660000578194CC3F8D820C2F30762344042F0E1
:105670000802C3F8DC4083F8DB20002283F8C22054
:1056800083F8862015B9426882F82B5193F8882157
:1056900002F0FF049AB91A8803F5C07083F88941B3
:1056A000A3F88A214A68C3F88C218A680749C3F89D
:1056B000902109F02FFB204670BD0124FBE7002458
:1056C000F9E700BF2FC904F76FDB0006A155000002
:1056D000406890F8883143B9038800F5C0700349E9
:1056E00043811A23437209F015BB7047A15500008E
:1056F00010B50446FEF7D6FA034A044B02400B40AD
:105700006260A36010BD00BF2FC904F76FDB000605
:1057100037B50C464568FEF7C5FA084B084A034002
:105720000A4095F8D81000930B4001928DF8003094
:105730006B4603CB6060A16003B030BD2FC904F796
:105740006FDB0006DB0410B5144604D5037D13B1EE
:105750000023436310BD436B0133436309F0C3FE71
:10576000D0E90D239A42F5D3002303494363204631
:10577000BDE8104009F0D7BA49F40000F8B5446814
:1057800005460E46077894F88630012B08D027B9D5
:1057900094F8873023B1012040E0A36F9A07FAD430
:1057A00094F8C9309B0719D4304609F0F2F984F80F
:1057B000D300B6F80530A4F8D430B6F80730A4F812
:1057C000D63094F8C93043F00202D80784F8C920D3
:1057D00010D5174904F1CA0009F0A5FA94F8C930A8
:1057E000D90712D4DFB994F8873043B15021402053
:1057F000FAF7E0FF94F82A31002BEAD1EEE7012313
:1058000084F88730284609F0DAFB94F886300020C7
:10581000012B03D184F8860084F8C200F8BDA36F81
:105820009A0701D55521E2E743F00203A367E9E7B0
:1058300007F5000070B545680446FEF7C5FE054B48
:10584000014685F885001B681BB12046BDE8704005
:10585000184770BDA4030020024B1B6803B1184712
:10586000704700BFA0030020F0B5204E054600247D
:105870003078147080B1431E7768DBB2181B0128A2
:105880000BDC07EBC40057F834604068884208BF5F
:10589000AE4212D114700120F0BD18194610C0F3A9
:1058A000470057F836C007EBC60EAC45DEF804607B
:1058B0008E412CBF03460446E0E7B54271EB000081
:1058C00002D214700020E7E707EBC30057F833401B
:1058D0004068884208BFAC4201D11370DBE7A542A3
:1058E000814128BF01331370ECE700BF5C15002035
:1058F00010F0070208B503D063214820FAF75AFFD9
:1059000018B1034B197258601A70C80008BD00BF67
:105910005C150020014B00221A7070475C150020B6
:10592000014B187A704700BF5C1500202DE9D34366
:1059300009F022FE0DF1070207460E46FFF794FF1D
:1059400098B9114C2278237A93420ED0616813469D
:105950006FF0604E9DF80700984209D301EBC00339
:10596000013201202270C3E9007602B0BDE8D08385
:1059700003EB0E00013B01EBC000DBB2D0E9008974
:10598000C0E90289E6E700BF5C15002037B509F0E1
:10599000F3FD0DF10702FFF767FF0446A0B10C4AC3
:1059A0009DF8070013785568411C013B05EBC101C8
:1059B000DBB213701A1AD2B2D200834238BF00226F
:1059C00005EBC0000AF0C1FF204603B030BD00BFA8
:1059D0005C1500200A460648822302F8033B036850
:1059E000C1F803304368536083689360704700BF19
:1059F000651500201622002101480AF0BEBF00BF35
:105A00006515002017B402AB03E903001B48437D72
:105A100083B30B469DF8001009BB93F86C10184A2D
:105A200052F821204FF47A7102F2E732B2FBF1F220
:105A3000D3E970146E3144F100045218198844F10E
:105A40000004426001808460B3F8803002220D4976
:105A50000C3020F80A3C03B010BCFFF77DB85206AA
:105A600008D51A880280D3F840224260D3F8442235
:105A70008260E9E703B010BC704700BF65150020E5
:105A8000E8580200D55900000F4B4FF47A720429F0
:105A900053F8213010B503F2E73300F1FF34B3FBC4
:105AA000F2F34FEAC41409D003290AD002290CBF2B
:105AB0006022F022234400FB023010BD4FF4D2627A
:105AC000F8E740F2BE22F5E7FC580200264B1A68C0
:105AD00010B5D2F80F300362537D117D1B0443EAE9
:105AE0000123D17C0B436FF450618362B2F819300B
:105AF000591806298DBF40F2E241A3F550634FF4D7
:105B00007A714B438EBF00214B430121C36180F862
:105B10007610937DD9B103EB830303EB83039B00E2
:105B20000386B2F81730D9B164214B43C362B2F88F
:105B30001B308384B2F81D30C38492F8243003F004
:105B40001F025B0980F89A2080F8C03110BDC3EBBA
:105B5000431403EB840303EB83035B009BB2DFE797
:105B600040F2E241E1E700BF7C15002038B5074D67
:105B7000044600F16901286808F0EDFD94F868100A
:105B80002868BDE8384008F0F4BD00BF7C1500204F
:105B9000D0F88030F7B50BB101221A604388DB07DB
:105BA00027D50023056A144E05F10A07CDE9003315
:105BB00002238DF80630FF2386F820306846FBF775
:105BC00013FBB0B9009CA542F8D03B466A7A04F1B9
:105BD0000A01607A08F0FAFB0028EFD0A37886F873
:105BE0002030D4F80330C6F82130044BB4F8072035
:105BF0009A8003B0F0BD00BF7C1500209D150020E9
:105C000038B5084D044600F16901062328680022D2
:105C100008F0C8FE94F868102868BDE8384008F01D
:105C2000A8BD00BF7C150020F8B504460E461346FB
:105C3000807F6588324615F0040118BF04F17701B2
:105C4000FEF7A4FBC20705460BD50123A07F84F80D
:105C50006830FEF7FFFB0368C4F869308388A4F856
:105C60006D30AB070CD50127084E04F17701306881
:105C700084F8767008F076FD3946306808F082FDC9
:105C800085F00400C0F38000F8BD00BF7C15002043
:105C900010B50446084694F8D8306BBB2378082921
:105CA00004F1DB0284F8D93016D004F1DA01FEF7F2
